{
  "contractName": "Gateway",
  "abi": [
    {
      "inputs": [
        {
          "internalType": "uint256",
          "name": "",
          "type": "uint256"
        }
      ],
      "name": "contentContracts",
      "outputs": [
        {
          "internalType": "address",
          "name": "",
          "type": "address"
        }
      ],
      "stateMutability": "view",
      "type": "function",
      "constant": true
    },
    {
      "inputs": [],
      "name": "getContentContracts",
      "outputs": [
        {
          "internalType": "address[]",
          "name": "",
          "type": "address[]"
        }
      ],
      "stateMutability": "view",
      "type": "function",
      "constant": true
    },
    {
      "inputs": [
        {
          "internalType": "string",
          "name": "_name",
          "type": "string"
        },
        {
          "internalType": "string",
          "name": "_email",
          "type": "string"
        }
      ],
      "name": "createNewUser",
      "outputs": [],
      "stateMutability": "nonpayable",
      "type": "function"
    },
    {
      "inputs": [
        {
          "internalType": "address",
          "name": "_user",
          "type": "address"
        }
      ],
      "name": "getUserProfile",
      "outputs": [
        {
          "internalType": "address",
          "name": "",
          "type": "address"
        },
        {
          "internalType": "string",
          "name": "",
          "type": "string"
        },
        {
          "internalType": "string",
          "name": "",
          "type": "string"
        },
        {
          "internalType": "uint256",
          "name": "",
          "type": "uint256"
        },
        {
          "internalType": "address[]",
          "name": "",
          "type": "address[]"
        },
        {
          "internalType": "address[]",
          "name": "",
          "type": "address[]"
        }
      ],
      "stateMutability": "view",
      "type": "function",
      "constant": true
    },
    {
      "inputs": [
        {
          "internalType": "string",
          "name": "_name",
          "type": "string"
        },
        {
          "internalType": "string",
          "name": "_email",
          "type": "string"
        },
        {
          "internalType": "address payable",
          "name": "_content",
          "type": "address"
        },
        {
          "internalType": "uint256",
          "name": "_contentCost",
          "type": "uint256"
        },
        {
          "internalType": "address payable",
          "name": "_publisher",
          "type": "address"
        }
      ],
      "name": "createNewUserAndPurchase",
      "outputs": [],
      "stateMutability": "payable",
      "type": "function",
      "payable": true
    },
    {
      "inputs": [
        {
          "internalType": "string",
          "name": "_name",
          "type": "string"
        },
        {
          "internalType": "string",
          "name": "_email",
          "type": "string"
        },
        {
          "internalType": "address payable",
          "name": "_publisher",
          "type": "address"
        },
        {
          "internalType": "uint256",
          "name": "_amount",
          "type": "uint256"
        }
      ],
      "name": "createNewUserAndSubscribe",
      "outputs": [],
      "stateMutability": "payable",
      "type": "function",
      "payable": true
    },
    {
      "inputs": [
        {
          "internalType": "address payable",
          "name": "_content",
          "type": "address"
        },
        {
          "internalType": "uint256",
          "name": "_contentCost",
          "type": "uint256"
        }
      ],
      "name": "purchaseContent",
      "outputs": [],
      "stateMutability": "payable",
      "type": "function",
      "payable": true
    },
    {
      "inputs": [
        {
          "internalType": "address payable",
          "name": "_publisher",
          "type": "address"
        },
        {
          "internalType": "uint256",
          "name": "_amount",
          "type": "uint256"
        }
      ],
      "name": "addSubscriber",
      "outputs": [
        {
          "internalType": "uint256",
          "name": "",
          "type": "uint256"
        },
        {
          "internalType": "uint256",
          "name": "",
          "type": "uint256"
        }
      ],
      "stateMutability": "nonpayable",
      "type": "function"
    },
    {
      "inputs": [
        {
          "internalType": "string",
          "name": "_name",
          "type": "string"
        },
        {
          "internalType": "string",
          "name": "_email",
          "type": "string"
        },
        {
          "internalType": "string",
          "name": "_logo",
          "type": "string"
        },
        {
          "internalType": "uint256",
          "name": "_subscriptionCost",
          "type": "uint256"
        }
      ],
      "name": "createNewPublisher",
      "outputs": [],
      "stateMutability": "payable",
      "type": "function",
      "payable": true
    },
    {
      "inputs": [
        {
          "internalType": "address payable",
          "name": "_publisher",
          "type": "address"
        }
      ],
      "name": "getPublisherProfile",
      "outputs": [
        {
          "internalType": "address",
          "name": "",
          "type": "address"
        },
        {
          "internalType": "string",
          "name": "",
          "type": "string"
        },
        {
          "internalType": "string",
          "name": "",
          "type": "string"
        },
        {
          "internalType": "string",
          "name": "",
          "type": "string"
        },
        {
          "internalType": "address[]",
          "name": "",
          "type": "address[]"
        },
        {
          "internalType": "uint256",
          "name": "",
          "type": "uint256"
        }
      ],
      "stateMutability": "view",
      "type": "function",
      "constant": true
    },
    {
      "inputs": [
        {
          "internalType": "string",
          "name": "_name",
          "type": "string"
        },
        {
          "internalType": "string",
          "name": "_email",
          "type": "string"
        },
        {
          "internalType": "string",
          "name": "_logo",
          "type": "string"
        },
        {
          "internalType": "uint256",
          "name": "_subscriptionCost",
          "type": "uint256"
        }
      ],
      "name": "updatePublisherProfile",
      "outputs": [],
      "stateMutability": "nonpayable",
      "type": "function"
    },
    {
      "inputs": [
        {
          "internalType": "address",
          "name": "_publisher",
          "type": "address"
        }
      ],
      "name": "getPublisherContracts",
      "outputs": [
        {
          "internalType": "address[]",
          "name": "",
          "type": "address[]"
        }
      ],
      "stateMutability": "view",
      "type": "function",
      "constant": true
    },
    {
      "inputs": [
        {
          "internalType": "address payable",
          "name": "_publisher",
          "type": "address"
        }
      ],
      "name": "subscriberCount",
      "outputs": [
        {
          "internalType": "uint256",
          "name": "",
          "type": "uint256"
        }
      ],
      "stateMutability": "view",
      "type": "function",
      "constant": true
    },
    {
      "inputs": [
        {
          "internalType": "address payable",
          "name": "_publisher",
          "type": "address"
        },
        {
          "internalType": "address",
          "name": "_consumer",
          "type": "address"
        }
      ],
      "name": "isSubscribed",
      "outputs": [
        {
          "internalType": "bool",
          "name": "",
          "type": "bool"
        },
        {
          "internalType": "uint256",
          "name": "",
          "type": "uint256"
        },
        {
          "internalType": "uint256",
          "name": "",
          "type": "uint256"
        }
      ],
      "stateMutability": "view",
      "type": "function",
      "constant": true
    },
    {
      "inputs": [
        {
          "internalType": "address payable",
          "name": "_publisher",
          "type": "address"
        },
        {
          "internalType": "address",
          "name": "_subscriber",
          "type": "address"
        }
      ],
      "name": "removeSubscriber",
      "outputs": [],
      "stateMutability": "nonpayable",
      "type": "function"
    },
    {
      "inputs": [
        {
          "internalType": "address payable",
          "name": "_to",
          "type": "address"
        }
      ],
      "name": "doTransferFunds",
      "outputs": [],
      "stateMutability": "payable",
      "type": "function",
      "payable": true
    },
    {
      "inputs": [
        {
          "internalType": "address payable",
          "name": "_content",
          "type": "address"
        }
      ],
      "name": "getContentInfo",
      "outputs": [
        {
          "internalType": "string",
          "name": "",
          "type": "string"
        },
        {
          "internalType": "string",
          "name": "",
          "type": "string"
        },
        {
          "internalType": "string",
          "name": "",
          "type": "string"
        },
        {
          "internalType": "string",
          "name": "",
          "type": "string"
        },
        {
          "internalType": "string",
          "name": "",
          "type": "string"
        },
        {
          "internalType": "string",
          "name": "",
          "type": "string"
        },
        {
          "internalType": "uint256",
          "name": "",
          "type": "uint256"
        },
        {
          "internalType": "uint256",
          "name": "",
          "type": "uint256"
        },
        {
          "internalType": "address",
          "name": "",
          "type": "address"
        },
        {
          "internalType": "string",
          "name": "",
          "type": "string"
        },
        {
          "internalType": "uint256",
          "name": "",
          "type": "uint256"
        }
      ],
      "stateMutability": "view",
      "type": "function",
      "constant": true
    },
    {
      "inputs": [
        {
          "internalType": "address payable",
          "name": "_publisher",
          "type": "address"
        },
        {
          "internalType": "string",
          "name": "_contentHash",
          "type": "string"
        },
        {
          "internalType": "string",
          "name": "_previewHash",
          "type": "string"
        },
        {
          "internalType": "string",
          "name": "_filename",
          "type": "string"
        },
        {
          "internalType": "string",
          "name": "_fileType",
          "type": "string"
        },
        {
          "internalType": "string",
          "name": "_title",
          "type": "string"
        },
        {
          "internalType": "string",
          "name": "_description",
          "type": "string"
        },
        {
          "internalType": "uint256",
          "name": "_price",
          "type": "uint256"
        },
        {
          "internalType": "string",
          "name": "_pubname",
          "type": "string"
        },
        {
          "internalType": "uint256",
          "name": "_pubfee",
          "type": "uint256"
        }
      ],
      "name": "createContent",
      "outputs": [],
      "stateMutability": "nonpayable",
      "type": "function"
    },
    {
      "inputs": [
        {
          "internalType": "address payable",
          "name": "_content",
          "type": "address"
        },
        {
          "internalType": "address",
          "name": "_consumer",
          "type": "address"
        }
      ],
      "name": "isWhitelisted",
      "outputs": [
        {
          "internalType": "bool",
          "name": "",
          "type": "bool"
        }
      ],
      "stateMutability": "view",
      "type": "function",
      "constant": true
    }
  ],
  "bytecode": "0x608060405234801561001057600080fd5b506156b7806100206000396000f3fe608060405260043610620001325760003560e060020a9004806397cdb29911620000b3578063bb5eb9901162000071578063bb5eb990146200037f578063d24a39dd1462000396578063d455b67e14620003ca578063f6416ef614620003e1578063f7bddce414620004175762000132565b806397cdb29914620002a5578063987ee15614620002bd5780639f7cc14d14620002f6578063a60607131462000334578063b6b35272146200034b5762000132565b806326d38f03116200010157806326d38f0314620001f95780634dfa3f18146200021057806355d0fbe214620002355780635cf04d82146200025a5780638a609367146200028e5762000132565b80631791e95d146200013757806319adf85014620001795780631d5b7ebe14620001ad578063219f3d5914620001d4575b600080fd5b3480156200014457600080fd5b506200015c62000156366004620016b5565b6200044c565b60405162000170969594939291906200205f565b60405180910390f35b3480156200018657600080fd5b506200019e62000198366004620016b5565b620005cf565b6040516200017091906200214e565b348015620001ba57600080fd5b50620001d2620001cc36600462001730565b62000680565b005b348015620001e157600080fd5b50620001d2620001f336600462001dfd565b62000799565b620001d26200020a36600462001882565b62000832565b3480156200021d57600080fd5b50620001d26200022f36600462001aef565b62000940565b3480156200024257600080fd5b50620001d262000254366004620016f3565b620009bc565b3480156200026757600080fd5b506200027f62000279366004620016b5565b62000aa4565b604051620001709190620022da565b620001d26200029f366004620016b5565b62000b4b565b348015620002b257600080fd5b506200019e62000bdb565b348015620002ca57600080fd5b50620002e2620002dc366004620016b5565b62000c3f565b6040516200017096959493929190620020d7565b3480156200030357600080fd5b506200031b62000315366004620016b5565b62000e00565b604051620001709b9a99989796959493929190620021b8565b620001d26200034536600462001b57565b62000eb3565b3480156200035857600080fd5b50620003706200036a366004620016f3565b6200107f565b60405162000170919062002163565b620001d26200039036600462001bdb565b62001124565b348015620003a357600080fd5b50620003bb620003b536600462001e93565b620012de565b60405162000170919062001f69565b620001d2620003db36600462001dfd565b62001306565b348015620003ee57600080fd5b506200040662000400366004620016f3565b62001388565b60405162000170939291906200216e565b3480156200042457600080fd5b506200043c6200043636600462001882565b6200141f565b60405162000170929190620022e3565b600160a060020a038082166000908152600160205260408120549091606091829182918291869116156200053457600160a060020a038088166000908152600160205260408082205481517f610105760000000000000000000000000000000000000000000000000000000081529151931692636101057692600480840193919291829003018186803b158015620004e357600080fd5b505afa158015620004f8573d6000803e3d6000fd5b505050506040513d6000823e601f3d908101601f19168201604052620005229190810190620018b0565b955095509550955095509550620005c6565b60408051602080820183526000808352835180830185528181528451808401865282815282548651818602810186019097528087529295919390928692839290918391830182828015620005b257602002820191906000526020600020905b8154600160a060020a0316815260019091019060200180831162000593575b505050505091509550955095509550955095505b91939550919395565b600160a060020a038082166000908152600160205260408082205481517f97cdb299000000000000000000000000000000000000000000000000000000008152915160609491909116926397cdb2999260048082019391829003018186803b1580156200063b57600080fd5b505afa15801562000650573d6000803e3d6000fd5b505050506040513d6000823e601f3d908101601f191682016040526200067a919081019062001a52565b92915050565b6040517f1d5b7ebe000000000000000000000000000000000000000000000000000000008152600090600160a060020a038c1690631d5b7ebe90620006dc9033908e908e908d908f908e908e908e908e908e9060040162001f7d565b602060405180830381600087803b158015620006f757600080fd5b505af11580156200070c573d6000803e3d6000fd5b505050506040513d601f19601f82011682018060405250810190620007329190620016d4565b600080546001810182559080527f290decd9548b62a8d60345a988386fc84ba6bc95484008f6362f93160ef3e56301805473ffffffffffffffffffffffffffffffffffffffff1916600160a060020a03929092169190911790555050505050505050505050565b33600090815260016020526040908190205490517f546f8203000000000000000000000000000000000000000000000000000000008152600160a060020a039091169063546f820390620007f890879087908790879060040162002289565b600060405180830381600087803b1580156200081357600080fd5b505af115801562000828573d6000803e3d6000fd5b5050505050505050565b6040517f26d38f03000000000000000000000000000000000000000000000000000000008152600160a060020a038316906326d38f03906200087b903390859060040162002046565b600060405180830381600087803b1580156200089657600080fd5b505af1158015620008ab573d6000803e3d6000fd5b505033600090815260026020526040908190205490517f25b31a97000000000000000000000000000000000000000000000000000000008152600160a060020a0390911692506325b31a9791506200090890859060040162001f69565b600060405180830381600087803b1580156200092357600080fd5b505af115801562000938573d6000803e3d6000fd5b505050505050565b60008282604051620009529062001540565b6200095f92919062002186565b604051809103906000f0801580156200097c573d6000803e3d6000fd5b50336000908152600260205260409020805473ffffffffffffffffffffffffffffffffffffffff1916600160a060020a0392909216919091179055505050565b600160a060020a03808316600090815260016020526040908190205490517f627c34ad00000000000000000000000000000000000000000000000000000000815291169063627c34ad9062000a1690849060040162001f69565b600060405180830381600087803b15801562000a3157600080fd5b505af115801562000a46573d6000803e3d6000fd5b505050600160a060020a03808316600090815260026020526040908190205490517f7262561c00000000000000000000000000000000000000000000000000000000815291169150637262561c906200090890859060040162001f69565b600160a060020a0380821660009081526001602090815260408083205481517fef352bbe00000000000000000000000000000000000000000000000000000000815291519394169263ef352bbe92600480840193919291829003018186803b15801562000b1057600080fd5b505afa15801562000b25573d6000803e3d6000fd5b505050506040513d601f19601f820116820180604052508101906200067a919062001eac565b33600090815260016020526040908190205490517fe39ff19f000000000000000000000000000000000000000000000000000000008152600160a060020a039091169063e39ff19f9062000ba490849060040162001f69565b600060405180830381600087803b15801562000bbf57600080fd5b505af115801562000bd4573d6000803e3d6000fd5b5050505050565b6060600080548060200260200160405190810160405280929190818152602001828054801562000c3557602002820191906000526020600020905b8154600160a060020a0316815260019091019060200180831162000c16575b5050505050905090565b600160a060020a0380821660009081526002602052604081205490916060918291849183918291161562000d1557600160a060020a038088166000908152600260205260408082205481517f6f61c7440000000000000000000000000000000000000000000000000000000081529151931692636f61c74492600480840193919291829003018186803b15801562000cd657600080fd5b505afa15801562000ceb573d6000803e3d6000fd5b505050506040513d6000823e601f3d908101601f1916820160405262000522919081019062001981565b60408051602080820183526000808352835180830185528181528154855181850281018501909652808652919490928592839283929091839183018282801562000d8957602002820191906000526020600020905b8154600160a060020a0316815260019091019060200180831162000d6a575b505050505091508080548060200260200160405190810160405280929190818152602001828054801562000de757602002820191906000526020600020905b8154600160a060020a0316815260019091019060200180831162000dc8575b50505050509050955095509550955095509550620005c6565b6060806060806060806000806000606060008b600160a060020a03166355c3c7486040518163ffffffff1660e060020a02815260040160006040518083038186803b15801562000e4f57600080fd5b505afa15801562000e64573d6000803e3d6000fd5b505050506040513d6000823e601f3d908101601f1916820160405262000e8e919081019062001c78565b9a509a509a509a509a509a509a509a509a509a509a5091939597999b90929496989a50565b604051600160a060020a038316903480156108fc02916000818181858888f1935050505015801562000ee9573d6000803e3d6000fd5b506000848460405162000efc9062001540565b62000f0992919062002186565b604051809103906000f08015801562000f26573d6000803e3d6000fd5b503360009081526002602052604090819020805473ffffffffffffffffffffffffffffffffffffffff1916600160a060020a03848116919091179182905591517f41a7726a00000000000000000000000000000000000000000000000000000000815292935016906341a7726a9062000fa490869060040162001f69565b600060405180830381600087803b15801562000fbf57600080fd5b505af115801562000fd4573d6000803e3d6000fd5b50506040517ff7bddce4000000000000000000000000000000000000000000000000000000008152600160a060020a038616925063f7bddce4915062001021903390869060040162002046565b6040805180830381600087803b1580156200103b57600080fd5b505af115801562001050573d6000803e3d6000fd5b505050506040513d601f19601f8201168201806040525081019062001076919062001ec5565b50505050505050565b6040517f3af32abf000000000000000000000000000000000000000000000000000000008152600090600160a060020a03841690633af32abf90620010c990859060040162001f69565b60206040518083038186803b158015620010e257600080fd5b505afa158015620010f7573d6000803e3d6000fd5b505050506040513d601f19601f820116820180604052508101906200111d919062001a91565b9392505050565b604051600160a060020a038216903480156108fc02916000818181858888f193505050501580156200115a573d6000803e3d6000fd5b50600085856040516200116d9062001540565b6200117a92919062002186565b604051809103906000f08015801562001197573d6000803e3d6000fd5b503360008181526002602052604090819020805473ffffffffffffffffffffffffffffffffffffffff1916600160a060020a038581169190911790915590517f26d38f030000000000000000000000000000000000000000000000000000000081529293508616916326d38f03916200121591879060040162002046565b600060405180830381600087803b1580156200123057600080fd5b505af115801562001245573d6000803e3d6000fd5b505033600090815260026020526040908190205490517f25b31a97000000000000000000000000000000000000000000000000000000008152600160a060020a0390911692506325b31a979150620012a290879060040162001f69565b600060405180830381600087803b158015620012bd57600080fd5b505af1158015620012d2573d6000803e3d6000fd5b50505050505050505050565b60008181548110620012ec57fe5b600091825260209091200154600160a060020a0316905081565b6000848484846040516200131a906200154e565b62001329949392919062002289565b604051809103906000f08015801562001346573d6000803e3d6000fd5b50336000908152600160205260409020805473ffffffffffffffffffffffffffffffffffffffff1916600160a060020a03929092169190911790555050505050565b600080600084600160a060020a031663b92ae87c856040518263ffffffff1660e060020a028152600401620013be919062001f69565b60606040518083038186803b158015620013d757600080fd5b505afa158015620013ec573d6000803e3d6000fd5b505050506040513d601f19601f8201168201806040525081019062001412919062001ab3565b9250925092509250925092565b60008083600160a060020a031663f7bddce433856040518363ffffffff1660e060020a0281526004016200145592919062002046565b6040805180830381600087803b1580156200146f57600080fd5b505af115801562001484573d6000803e3d6000fd5b505050506040513d601f19601f82011682018060405250810190620014aa919062001ec5565b505033600090815260026020526040908190205490517f41a7726a000000000000000000000000000000000000000000000000000000008152600160a060020a03909116906341a7726a906200150590879060040162001f69565b600060405180830381600087803b1580156200152057600080fd5b505af115801562001535573d6000803e3d6000fd5b505050509250929050565b6107e7806200238b83390190565b612b108062002b7283390190565b80516200067a8162002371565b80356200067a8162002371565b600082601f83011262001587578081fd5b815167ffffffffffffffff8111156200159e578182fd5b6020808202620015b0828201620022f1565b83815293508184018583018287018401881015620015cd57600080fd5b600092505b84831015620015fd578051620015e88162002371565b825260019290920191908301908301620015d2565b505050505092915050565b600082601f83011262001619578081fd5b8135620016306200162a8262002319565b620022f1565b91508082528360208285010111156200164857600080fd5b8060208401602084013760009082016020015292915050565b600082601f83011262001672578081fd5b8151620016836200162a8262002319565b91508082528360208285010111156200169b57600080fd5b620016ae8160208401602086016200233e565b5092915050565b600060208284031215620016c7578081fd5b81356200111d8162002371565b600060208284031215620016e6578081fd5b81516200111d8162002371565b6000806040838503121562001706578081fd5b8235620017138162002371565b91506020830135620017258162002371565b809150509250929050565b6000806000806000806000806000806101408b8d03121562001750578586fd5b6200175c8c8c62001569565b995060208b013567ffffffffffffffff8082111562001779578788fd5b620017878e838f0162001608565b9a5060408d01359150808211156200179d578788fd5b620017ab8e838f0162001608565b995060608d0135915080821115620017c1578788fd5b620017cf8e838f0162001608565b985060808d0135915080821115620017e5578788fd5b620017f38e838f0162001608565b975060a08d013591508082111562001809578687fd5b620018178e838f0162001608565b965060c08d01359150808211156200182d578586fd5b6200183b8e838f0162001608565b955060e08d013594506101008d013591508082111562001859578384fd5b50620018688d828e0162001608565b9250506101208b013590509295989b9194979a5092959850565b6000806040838503121562001895578182fd5b8235620018a28162002371565b946020939093013593505050565b60008060008060008060c08789031215620018c9578182fd5b620018d588886200155c565b9550602087015167ffffffffffffffff80821115620018f2578384fd5b620019008a838b0162001661565b9650604089015191508082111562001916578384fd5b620019248a838b0162001661565b955060608901519150808211156200193a578384fd5b620019488a838b0162001661565b945060808901519150808211156200195e578384fd5b506200196d89828a0162001576565b92505060a087015190509295509295509295565b60008060008060008060c087890312156200199a578182fd5b620019a688886200155c565b9550602087015167ffffffffffffffff80821115620019c3578384fd5b620019d18a838b0162001661565b96506040890151915080821115620019e7578384fd5b620019f58a838b0162001661565b955060608901519450608089015191508082111562001a12578384fd5b62001a208a838b0162001576565b935060a089015191508082111562001a36578283fd5b5062001a4589828a0162001576565b9150509295509295509295565b60006020828403121562001a64578081fd5b815167ffffffffffffffff81111562001a7b578182fd5b62001a898482850162001576565b949350505050565b60006020828403121562001aa3578081fd5b815180151581146200111d578182fd5b60008060006060848603121562001ac8578081fd5b8351801515811462001ad8578182fd5b602085015160409095015190969495509392505050565b6000806040838503121562001b02578182fd5b823567ffffffffffffffff8082111562001b1a578384fd5b62001b288683870162001608565b9350602085013591508082111562001b3e578283fd5b5062001b4d8582860162001608565b9150509250929050565b6000806000806080858703121562001b6d578182fd5b843567ffffffffffffffff8082111562001b85578384fd5b62001b938883890162001608565b9550602087013591508082111562001ba9578384fd5b5062001bb88782880162001608565b935050604085013562001bcb8162002371565b9396929550929360600135925050565b600080600080600060a0868803121562001bf3578283fd5b853567ffffffffffffffff8082111562001c0b578485fd5b62001c1989838a0162001608565b9650602088013591508082111562001c2f578485fd5b5062001c3e8882890162001608565b945050604086013562001c518162002371565b925060608601359150608086013562001c6a8162002371565b809150509295509295909350565b60008060008060008060008060008060006101608c8e03121562001c9a578485fd5b8b5167ffffffffffffffff81111562001cb1578586fd5b62001cbf8e828f0162001661565b9b505060208c015167ffffffffffffffff81111562001cdc578586fd5b62001cea8e828f0162001661565b9a505060408c015167ffffffffffffffff81111562001d07578586fd5b62001d158e828f0162001661565b99505060608c015167ffffffffffffffff81111562001d32578586fd5b62001d408e828f0162001661565b98505060808c015167ffffffffffffffff81111562001d5d578586fd5b62001d6b8e828f0162001661565b97505060a08c015167ffffffffffffffff81111562001d88578586fd5b62001d968e828f0162001661565b96505060c08c0151945060e08c0151935062001db78d6101008e016200155c565b92506101208c015167ffffffffffffffff81111562001dd4578182fd5b62001de28e828f0162001661565b9250506101408c015190509295989b509295989b9093969950565b6000806000806080858703121562001e13578182fd5b843567ffffffffffffffff8082111562001e2b578384fd5b62001e398883890162001608565b9550602087013591508082111562001e4f578384fd5b62001e5d8883890162001608565b9450604087013591508082111562001e73578384fd5b5062001e828782880162001608565b949793965093946060013593505050565b60006020828403121562001ea5578081fd5b5035919050565b60006020828403121562001ebe578081fd5b5051919050565b6000806040838503121562001ed8578182fd5b505080516020909101519092909150565b600160a060020a03169052565b6000815180845260208085019450808401835b8381101562001f30578151600160a060020a03168752958201959082019060010162001f09565b509495945050505050565b6000815180845262001f558160208601602086016200233e565b601f01601f19169290920160200192915050565b600160a060020a0391909116815260200190565b6000610140600160a060020a038d16835280602084015262001fa28184018d62001f3b565b9050828103604084015262001fb8818c62001f3b565b9050828103606084015262001fce818b62001f3b565b9050828103608084015262001fe4818a62001f3b565b905082810360a084015262001ffa818962001f3b565b905082810360c084015262002010818862001f3b565b90508560e08401528281036101008401526200202d818662001f3b565b915050826101208301529b9a5050505050505050505050565b600160a060020a03929092168252602082015260400190565b6000600160a060020a038816825260c060208301526200208360c083018862001f3b565b828103604084015262002097818862001f3b565b90508281036060840152620020ad818762001f3b565b90508281036080840152620020c3818662001ef6565b9150508260a0830152979650505050505050565b6000600160a060020a038816825260c06020830152620020fb60c083018862001f3b565b82810360408401526200210f818862001f3b565b905085606084015282810360808401526200212b818662001ef6565b905082810360a084015262002141818562001ef6565b9998505050505050505050565b6000602082526200111d602083018462001ef6565b901515815260200190565b92151583526020830191909152604082015260600190565b6000604082526200219b604083018562001f3b565b8281036020840152620021af818562001f3b565b95945050505050565b6000610160808352620021ce8184018f62001f3b565b90508281036020840152620021e4818e62001f3b565b90508281036040840152620021fa818d62001f3b565b9050828103606084015262002210818c62001f3b565b9050828103608084015262002226818b62001f3b565b905082810360a08401526200223c818a62001f3b565b90508760c08401528660e08401526200225a61010084018762001ee9565b8281036101208401526200226f818662001f3b565b915050826101408301529c9b505050505050505050505050565b6000608082526200229e608083018762001f3b565b8281036020840152620022b2818762001f3b565b90508281036040840152620022c8818662001f3b565b91505082606083015295945050505050565b90815260200190565b918252602082015260400190565b60405181810167ffffffffffffffff811182821017156200231157600080fd5b604052919050565b600067ffffffffffffffff82111562002330578081fd5b50601f01601f191660200190565b60005b838110156200235b57818101518382015260200162002341565b838111156200236b576000848401525b50505050565b600160a060020a03811681146200238757600080fd5b5056fe608060405234801561001057600080fd5b506040516107e73803806107e783398101604081905261002f916101b5565b60058054600160a060020a031990811633179091554260045560068054909116301790558151610066906007906020850190610082565b50805161007a906008906020840190610082565b505050610215565b828054600181600116156101000203166002900490600052602060002090601f016020900481019282601f106100c357805160ff19168380011785556100f0565b828001600101855582156100f0579182015b828111156100f05782518255916020019190600101906100d5565b506100fc929150610100565b5090565b5b808211156100fc5760008155600101610101565b600082601f830112610125578081fd5b81516001604060020a038082111561013b578283fd5b6040516020601f8401601f191682018101838111838210171561015c578586fd5b8060405250819450838252868185880101111561017857600080fd5b600092505b8383101561019a578583018101518284018201529182019161017d565b838311156101ab5760008185840101525b5050505092915050565b600080604083850312156101c7578182fd5b82516001604060020a03808211156101dd578384fd5b6101e986838701610115565b935060208501519150808211156101fe578283fd5b5061020b85828601610115565b9150509250929050565b6105c3806102246000396000f3fe608060405234801561001057600080fd5b5060043610610073577c0100000000000000000000000000000000000000000000000000000000600035046325b31a9781146100785780633d2bd0351461008d57806341a7726a146100ab5780636f61c744146100be5780637262561c146100d8575b600080fd5b61008b61008636600461044f565b6100eb565b005b61009561014a565b6040516100a2919061057a565b60405180910390f35b61008b6100b936600461044f565b6101ac565b6100c661021f565b6040516100a29695949392919061050b565b61008b6100e636600461044f565b61042e565b600280546001810182556000919091527f405787fa12a823e0f2b7631cc41b3ba8828b3321ca811111fa75cd3aa3bb5ace01805473ffffffffffffffffffffffffffffffffffffffff1916600160a060020a0392909216919091179055565b606060028054806020026020016040519081016040528092919081815260200182805480156101a257602002820191906000526020600020905b8154600160a060020a03168152600190910190602001808311610184575b5050505050905090565b600160a060020a03166000818152602081905260408120805460ff191660019081179091556003805491820181559091527fc2575a0e9e593c00f959f8c92f12db2869c3395a3b0502d05e2516446f71f85b01805473ffffffffffffffffffffffffffffffffffffffff19169091179055565b60065460045460078054604080516020600261010060018616150260001901909416849004601f81018290048202830182019093528282526000966060968796899688968796600160a060020a039095169592946008949360039287918301828280156102cd5780601f106102a2576101008083540402835291602001916102cd565b820191906000526020600020905b8154815290600101906020018083116102b057829003601f168201915b5050875460408051602060026001851615610100026000190190941693909304601f8101849004840282018401909252818152959a508994509250840190508282801561035b5780601f106103305761010080835404028352916020019161035b565b820191906000526020600020905b81548152906001019060200180831161033e57829003601f168201915b50505050509350818054806020026020016040519081016040528092919081815260200182805480156103b757602002820191906000526020600020905b8154600160a060020a03168152600190910190602001808311610399575b505050505091508080548060200260200160405190810160405280929190818152602001828054801561041357602002820191906000526020600020905b8154600160a060020a031681526001909101906020018083116103f5575b50505050509050955095509550955095509550909192939495565b600160a060020a03166000908152602081905260409020805460ff19169055565b600060208284031215610460578081fd5b8135600160a060020a0381168114610476578182fd5b9392505050565b6000815180845260208085019450808401835b838110156104b5578151600160a060020a031687529582019590820190600101610490565b509495945050505050565b60008151808452815b818110156104e5576020818501810151868301820152016104c9565b818111156104f65782602083870101525b50601f01601f19169290920160200192915050565b6000600160a060020a038816825260c0602083015261052d60c08301886104c0565b828103604084015261053f81886104c0565b90508560608401528281036080840152610559818661047d565b905082810360a084015261056d818561047d565b9998505050505050505050565b600060208252610476602083018461047d56fea2646970667358221220136b638910b6d8e351906096da68b68a1e2d902cbfa1feba242d4b1dc1b2c0de64736f6c634300060c0033608060405260405162002b1038038062002b108339810160408190526200002691620001db565b60018054600160a060020a03199081163017909155600080549091163317905583516200005b90600290602087019062000098565b5082516200007190600490602086019062000098565b5081516200008790600590602085019062000098565b506006555050426008555062000270565b828054600181600116156101000203166002900490600052602060002090601f016020900481019282601f10620000db57805160ff19168380011785556200010b565b828001600101855582156200010b579182015b828111156200010b578251825591602001919060010190620000ee565b50620001199291506200011d565b5090565b5b808211156200011957600081556001016200011e565b600082601f83011262000145578081fd5b81516001604060020a03808211156200015c578283fd5b6040516020601f8401601f19168201810183811183821017156200017e578586fd5b806040525081945083825286818588010111156200019b57600080fd5b600092505b83831015620001bf5785830181015182840182015291820191620001a0565b83831115620001d15760008185840101525b5050505092915050565b60008060008060808587031215620001f1578384fd5b84516001604060020a038082111562000208578586fd5b620002168883890162000134565b955060208701519150808211156200022c578485fd5b6200023a8883890162000134565b9450604087015191508082111562000250578384fd5b506200025f8782880162000134565b606096909601519497939650505050565b61289080620002806000396000f3fe608060405260043610620000c0576000357c01000000000000000000000000000000000000000000000000000000009004806397cdb299116200007e57806397cdb29914620001ad578063b92ae87c14620001d4578063e39ff19f146200020a578063ef352bbe1462000221578063f7bddce4146200024857620000c8565b80631d5b7ebe14620000ca578063546f820314620000f957806361010576146200011e578063627c34ad146200014a5780638d1f4014146200016f57620000c8565b36620000c857005b005b620000e1620000db36600462000a48565b6200026f565b604051620000f0919062000e66565b60405180910390f35b3480156200010657600080fd5b50620000c86200011836600462000d4d565b62000325565b3480156200012b57600080fd5b50620001366200036f565b604051620000f09695949392919062000f43565b3480156200015757600080fd5b50620000c86200016936600462000a22565b620005d0565b3480156200017c57600080fd5b50620001946200018e36600462000a22565b62000608565b604051620000f09b9a9998979695949392919062000fe8565b348015620001ba57600080fd5b50620001c5620006d4565b604051620000f0919062000fbb565b348015620001e157600080fd5b50620001f9620001f336600462000a22565b62000738565b604051620000f09392919062000fd0565b620000c86200021b36600462000a22565b620007a3565b3480156200022e57600080fd5b506200023962000857565b604051620000f0919062001116565b6200025f6200025936600462000b9a565b6200085d565b604051620000f09291906200111f565b6000808b8b8b8b8b8b8b8b8b8b6040516200028a90620008ab565b6200029f9a9998979695949392919062000e7a565b604051809103906000f080158015620002bc573d6000803e3d6000fd5b50600980546001810182556000919091527f6e1540171b6c0c960b71a7020d9f60077f6af931a8bbf590da0223dacf75c7af01805473ffffffffffffffffffffffffffffffffffffffff1916600160a060020a0383161790559c9b505050505050505050505050565b83516200033a906002906020870190620008b9565b50825162000350906004906020860190620008b9565b50815162000366906005906020850190620008b9565b50600655505050565b60006060806060806000600160009054906101000a9004600160a060020a03166002600460056009600654848054600181600116156101000203166002900480601f016020809104026020016040519081016040528092919081815260200182805460018160011615610100020316600290048015620004335780601f10620004075761010080835404028352916020019162000433565b820191906000526020600020905b8154815290600101906020018083116200041557829003601f168201915b5050875460408051602060026001851615610100026000190190941693909304601f8101849004840282018401909252818152959a5089945092508401905082828015620004c55780601f106200049957610100808354040283529160200191620004c5565b820191906000526020600020905b815481529060010190602001808311620004a757829003601f168201915b5050865460408051602060026001851615610100026000190190941693909304601f810184900484028201840190925281815295995088945092508401905082828015620005575780601f106200052b5761010080835404028352916020019162000557565b820191906000526020600020905b8154815290600101906020018083116200053957829003601f168201915b5050505050925081805480602002602001604051908101604052809291908181526020018280548015620005b557602002820191906000526020600020905b8154600160a060020a0316815260019091019060200180831162000596575b50505050509150955095509550955095509550909192939495565b600160a060020a03166000908152600c60209081526040808320805460ff1916905560078054600019019055600b9091529020429055565b6060806060806060806000806000606060008b600160a060020a03166355c3c7486040518163ffffffff167c010000000000000000000000000000000000000000000000000000000002815260040160006040518083038186803b1580156200067057600080fd5b505afa15801562000685573d6000803e3d6000fd5b505050506040513d6000823e601f3d908101601f19168201604052620006af919081019062000bc8565b9a509a509a509a509a509a509a509a509a509a509a5091939597999b90929496989a50565b606060098054806020026020016040519081016040528092919081815260200182805480156200072e57602002820191906000526020600020905b8154600160a060020a031681526001909101906020018083116200070f575b5050505050905090565b600160a060020a0381166000908152600b6020526040812054819081904210156200079257505050600160a060020a0381166000908152600c6020908152604080832054600b9092529091205460ff90911690426200079c565b5060009150819050805b9193909250565b600081600160a060020a031630600160a060020a031631604051620007c89062000e63565b60006040518083038185875af1925050503d806000811462000807576040519150601f19603f3d011682016040523d82523d6000602084013e6200080c565b606091505b505090508062000853576040517f08c379a00000000000000000000000000000000000000000000000000000000081526004016200084a90620010b9565b60405180910390fd5b5050565b60075490565b506003805434019055600160a060020a03166000908152600c60209081526040808320805460ff19166001908117909155600780549091019055600b90915290204261070881019182905591565b61169480620011c783390190565b828054600181600116156101000203166002900490600052602060002090601f016020900481019282601f10620008fc57805160ff19168380011785556200092c565b828001600101855582156200092c579182015b828111156200092c5782518255916020019190600101906200090f565b506200093a9291506200093e565b5090565b5b808211156200093a57600081556001016200093f565b80516200096281620011ad565b92915050565b80356200096281620011ad565b600082601f83011262000986578081fd5b81356200099d620009978262001155565b6200112d565b9150808252836020828501011115620009b557600080fd5b8060208401602084013760009082016020015292915050565b600082601f830112620009df578081fd5b8151620009f0620009978262001155565b915080825283602082850101111562000a0857600080fd5b62000a1b8160208401602086016200117a565b5092915050565b60006020828403121562000a34578081fd5b813562000a4181620011ad565b9392505050565b6000806000806000806000806000806101408b8d03121562000a68578586fd5b62000a748c8c62000968565b995060208b013567ffffffffffffffff8082111562000a91578788fd5b62000a9f8e838f0162000975565b9a5060408d013591508082111562000ab5578788fd5b62000ac38e838f0162000975565b995060608d013591508082111562000ad9578788fd5b62000ae78e838f0162000975565b985060808d013591508082111562000afd578788fd5b62000b0b8e838f0162000975565b975060a08d013591508082111562000b21578687fd5b62000b2f8e838f0162000975565b965060c08d013591508082111562000b45578586fd5b62000b538e838f0162000975565b955060e08d013594506101008d013591508082111562000b71578384fd5b5062000b808d828e0162000975565b9250506101208b013590509295989b9194979a5092959850565b6000806040838503121562000bad578182fd5b823562000bba81620011ad565b946020939093013593505050565b60008060008060008060008060008060006101608c8e03121562000bea578081fd5b8b5167ffffffffffffffff81111562000c01578182fd5b62000c0f8e828f01620009ce565b9b505060208c015167ffffffffffffffff81111562000c2c578182fd5b62000c3a8e828f01620009ce565b9a505060408c015167ffffffffffffffff81111562000c57578182fd5b62000c658e828f01620009ce565b99505060608c015167ffffffffffffffff81111562000c82578182fd5b62000c908e828f01620009ce565b98505060808c015167ffffffffffffffff81111562000cad578182fd5b62000cbb8e828f01620009ce565b97505060a08c015167ffffffffffffffff81111562000cd8578182fd5b62000ce68e828f01620009ce565b96505060c08c0151945060e08c0151935062000d078d6101008e0162000955565b92506101208c015167ffffffffffffffff81111562000d24578182fd5b62000d328e828f01620009ce565b9250506101408c015190509295989b509295989b9093969950565b6000806000806080858703121562000d63578384fd5b843567ffffffffffffffff8082111562000d7b578586fd5b62000d898883890162000975565b9550602087013591508082111562000d9f578485fd5b62000dad8883890162000975565b9450604087013591508082111562000dc3578384fd5b5062000dd28782880162000975565b949793965093946060013593505050565b600160a060020a03169052565b6000815180845260208085019450808401835b8381101562000e2a578151600160a060020a03168752958201959082019060010162000e03565b509495945050505050565b6000815180845262000e4f8160208601602086016200117a565b601f01601f19169290920160200192915050565b90565b600160a060020a0391909116815260200190565b6000610140600160a060020a038d16835280602084015262000e9f8184018d62000e35565b9050828103604084015262000eb5818c62000e35565b9050828103606084015262000ecb818b62000e35565b9050828103608084015262000ee1818a62000e35565b905082810360a084015262000ef7818962000e35565b905082810360c084015262000f0d818862000e35565b90508560e084015282810361010084015262000f2a818662000e35565b915050826101208301529b9a5050505050505050505050565b6000600160a060020a038816825260c0602083015262000f6760c083018862000e35565b828103604084015262000f7b818862000e35565b9050828103606084015262000f91818762000e35565b9050828103608084015262000fa7818662000df0565b9150508260a0830152979650505050505050565b60006020825262000a41602083018462000df0565b92151583526020830191909152604082015260600190565b600061016080835262000ffe8184018f62000e35565b9050828103602084015262001014818e62000e35565b905082810360408401526200102a818d62000e35565b9050828103606084015262001040818c62000e35565b9050828103608084015262001056818b62000e35565b905082810360a08401526200106c818a62000e35565b90508760c08401528660e08401526200108a61010084018762000de3565b8281036101208401526200109f818662000e35565b915050826101408301529c9b505050505050505050505050565b60208082526027908201527f4661696c656420746f207472616e73666572207468652066756e64732c20616260408201527f6f7274696e672e00000000000000000000000000000000000000000000000000606082015260800190565b90815260200190565b918252602082015260400190565b60405181810167ffffffffffffffff811182821017156200114d57600080fd5b604052919050565b600067ffffffffffffffff8211156200116c578081fd5b50601f01601f191660200190565b60005b83811015620011975781810151838201526020016200117d565b83811115620011a7576000848401525b50505050565b600160a060020a0381168114620011c357600080fd5b5056fe6080604052604051620016943803806200169483398101604081905262000026916200037b565b60008054600160a060020a03199081163317825560018054909116301790819055600160a060020a031681526004602090815260409091208a516200006e928c01906200021a565b5060018054600160a060020a031660009081526004602090815260409091208a51620000a29391909101918b01906200021a565b50600154600160a060020a031660009081526004602090815260409091208851620000d6926002909201918a01906200021a565b50600154600160a060020a0316600090815260046020818152604090922087516200010a939190920191908801906200021a565b50600154600160a060020a0316600090815260046020908152604090912085516200013e926005909201918701906200021a565b50600154600160a060020a03166000908152600460209081526040909120875162000172926003909201918901906200021a565b5060018054600160a060020a0390811660009081526004602090815260408083204260069091015584548416835280832060070188905593549092168152919091208351620001ca926008909201918501906200021a565b5060018054600160a060020a039081166000908152600460209081526040808320600901959095559c90911681526003909b529920805460ff191690991790985550620004cc9650505050505050565b828054600181600116156101000203166002900490600052602060002090601f016020900481019282601f106200025d57805160ff19168380011785556200028d565b828001600101855582156200028d579182015b828111156200028d57825182559160200191906001019062000270565b506200029b9291506200029f565b5090565b5b808211156200029b5760008155600101620002a0565b8051600160a060020a0381168114620002ce57600080fd5b92915050565b600082601f830112620002e5578081fd5b81516001604060020a0380821115620002fc578283fd5b6040516020601f8401601f19168201810183811183821017156200031e578586fd5b806040525081945083825286818588010111156200033b57600080fd5b600092505b838310156200035f578583018101518284018201529182019162000340565b83831115620003715760008185840101525b5050505092915050565b6000806000806000806000806000806101408b8d0312156200039b578586fd5b620003a78c8c620002b6565b995060208b01516001604060020a0380821115620003c3578788fd5b620003d18e838f01620002d4565b9a5060408d0151915080821115620003e7578788fd5b620003f58e838f01620002d4565b995060608d01519150808211156200040b578788fd5b620004198e838f01620002d4565b985060808d01519150808211156200042f578788fd5b6200043d8e838f01620002d4565b975060a08d015191508082111562000453578687fd5b620004618e838f01620002d4565b965060c08d015191508082111562000477578586fd5b620004858e838f01620002d4565b955060e08d015194506101008d0151915080821115620004a3578384fd5b50620004b28d828e01620002d4565b9250506101208b015190509295989b9194979a5092959850565b6111b880620004dc6000396000f3fe608060405260043610610075577c0100000000000000000000000000000000000000000000000000000000600035046326d38f03811461007e5780633af32abf1461009157806355c3c748146100c75780635c9355d7146100f35780636e70096e146101295780637502b9e8146101495761007c565b3661007c57005b005b61007c61008c366004610e51565b610169565b34801561009d57600080fd5b506100b16100ac366004610e36565b6101f5565b6040516100be9190610eeb565b60405180910390f35b3480156100d357600080fd5b506100dc610213565b6040516100be9b9a99989796959493929190610f09565b3480156100ff57600080fd5b5061011361010e366004610e36565b6108bf565b6040516100be9a99989796959493929190610fca565b34801561013557600080fd5b5061007c610144366004610e7b565b610cf0565b34801561015557600080fd5b506100b1610164366004610e36565b610d79565b600154600160a060020a031660009081526004602052604090206007015481146101c8576040517f08c379a00000000000000000000000000000000000000000000000000000000081526004016101bf9061107c565b60405180910390fd5b506002805434019055600160a060020a03166000908152600360205260409020805460ff19166001179055565b600160a060020a031660009081526003602052604090205460ff1690565b60608060608060608060008060006060600060046000600160009054906101000a9004600160a060020a0316600160a060020a0316600160a060020a0316815260200190815260200160002060000160046000600160009054906101000a9004600160a060020a0316600160a060020a0316600160a060020a0316815260200190815260200160002060010160046000600160009054906101000a9004600160a060020a0316600160a060020a0316600160a060020a0316815260200190815260200160002060020160046000600160009054906101000a9004600160a060020a0316600160a060020a0316600160a060020a0316815260200190815260200160002060030160046000600160009054906101000a9004600160a060020a0316600160a060020a0316600160a060020a0316815260200190815260200160002060040160046000600160009054906101000a9004600160a060020a0316600160a060020a0316600160a060020a0316815260200190815260200160002060050160046000600160009054906101000a9004600160a060020a0316600160a060020a0316600160a060020a031681526020019081526020016000206006015460046000600160009054906101000a9004600160a060020a0316600160a060020a0316600160a060020a031681526020019081526020016000206007015460008054906101000a9004600160a060020a031660046000600160009054906101000a9004600160a060020a0316600160a060020a0316600160a060020a0316815260200190815260200160002060080160046000600160009054906101000a9004600160a060020a0316600160a060020a0316600160a060020a03168152602001908152602001600020600901548a8054600181600116156101000203166002900480601f0160208091040260200160405190810160405280929190818152602001828054600181600116156101000203166002900480156105335780601f1061050857610100808354040283529160200191610533565b820191906000526020600020905b81548152906001019060200180831161051657829003601f168201915b50505050509a50898054600181600116156101000203166002900480601f0160208091040260200160405190810160405280929190818152602001828054600181600116156101000203166002900480156105cf5780601f106105a4576101008083540402835291602001916105cf565b820191906000526020600020905b8154815290600101906020018083116105b257829003601f168201915b50508c5460408051602060026001851615610100026000190190941693909304601f8101849004840282018401909252818152959f508e94509250840190508282801561065d5780601f106106325761010080835404028352916020019161065d565b820191906000526020600020905b81548152906001019060200180831161064057829003601f168201915b50508b5460408051602060026001851615610100026000190190941693909304601f8101849004840282018401909252818152959e508d9450925084019050828280156106eb5780601f106106c0576101008083540402835291602001916106eb565b820191906000526020600020905b8154815290600101906020018083116106ce57829003601f168201915b50508a5460408051602060026001851615610100026000190190941693909304601f8101849004840282018401909252818152959d508c9450925084019050828280156107795780601f1061074e57610100808354040283529160200191610779565b820191906000526020600020905b81548152906001019060200180831161075c57829003601f168201915b5050895460408051602060026001851615610100026000190190941693909304601f8101849004840282018401909252818152959c508b9450925084019050828280156108075780601f106107dc57610100808354040283529160200191610807565b820191906000526020600020905b8154815290600101906020018083116107ea57829003601f168201915b5050855460408051602060026001851615610100026000190190941693909304601f8101849004840282018401909252818152959b50879450925084019050828280156108955780601f1061086a57610100808354040283529160200191610895565b820191906000526020600020905b81548152906001019060200180831161087857829003601f168201915b505050505091509a509a509a509a509a509a509a509a509a509a509a50909192939495969798999a565b60046020908152600091825260409182902080548351601f600260001961010060018616150201909316929092049182018490048402810184019094528084529092918391908301828280156109565780601f1061092b57610100808354040283529160200191610956565b820191906000526020600020905b81548152906001019060200180831161093957829003601f168201915b505050505090806001018054600181600116156101000203166002900480601f0160208091040260200160405190810160405280929190818152602001828054600181600116156101000203166002900480156109f45780601f106109c9576101008083540402835291602001916109f4565b820191906000526020600020905b8154815290600101906020018083116109d757829003601f168201915b50505060028085018054604080516020601f6000196101006001871615020190941695909504928301859004850281018501909152818152959695945090925090830182828015610a865780601f10610a5b57610100808354040283529160200191610a86565b820191906000526020600020905b815481529060010190602001808311610a6957829003601f168201915b5050505060038301805460408051602060026001851615610100026000190190941693909304601f8101849004840282018401909252818152949594935090830182828015610b165780601f10610aeb57610100808354040283529160200191610b16565b820191906000526020600020905b815481529060010190602001808311610af957829003601f168201915b5050505060048301805460408051602060026001851615610100026000190190941693909304601f8101849004840282018401909252818152949594935090830182828015610ba65780601f10610b7b57610100808354040283529160200191610ba6565b820191906000526020600020905b815481529060010190602001808311610b8957829003601f168201915b5050505060058301805460408051602060026001851615610100026000190190941693909304601f8101849004840282018401909252818152949594935090830182828015610c365780601f10610c0b57610100808354040283529160200191610c36565b820191906000526020600020905b815481529060010190602001808311610c1957829003601f168201915b505050505090806006015490806007015490806008018054600181600116156101000203166002900480601f016020809104026020016040519081016040528092919081815260200182805460018160011615610100020316600290048015610ce05780601f10610cb557610100808354040283529160200191610ce0565b820191906000526020600020905b815481529060010190602001808311610cc357829003601f168201915b505050505090806009015490508a565b600254811115610d2c576040517f08c379a00000000000000000000000000000000000000000000000000000000081526004016101bf906110ff565b600254610d399082610d8e565b60025560008054604051600160a060020a039091169183156108fc02918491818181858888f19350505050158015610d75573d6000803e3d6000fd5b5050565b60036020526000908152604090205460ff1681565b6000610dd083836040518060400160405280601e81526020017f536166654d6174683a207375627472616374696f6e206f766572666c6f770000815250610dd9565b90505b92915050565b60008184841115610e17576040517f08c379a00000000000000000000000000000000000000000000000000000000081526004016101bf9190610ef6565b505050900390565b8035600160a060020a0381168114610dd357600080fd5b600060208284031215610e47578081fd5b610dd08383610e1f565b60008060408385031215610e63578081fd5b610e6d8484610e1f565b946020939093013593505050565b600060208284031215610e8c578081fd5b5035919050565b600160a060020a03169052565b60008151808452815b81811015610ec557602081850181015186830182015201610ea9565b81811115610ed65782602083870101525b50601f01601f19169290920160200192915050565b901515815260200190565b600060208252610dd06020830184610ea0565b6000610160808352610f1d8184018f610ea0565b90508281036020840152610f31818e610ea0565b90508281036040840152610f45818d610ea0565b90508281036060840152610f59818c610ea0565b90508281036080840152610f6d818b610ea0565b905082810360a0840152610f81818a610ea0565b90508760c08401528660e0840152610f9d610100840187610e93565b828103610120840152610fb08186610ea0565b915050826101408301529c9b505050505050505050505050565b6000610140808352610fde8184018e610ea0565b90508281036020840152610ff2818d610ea0565b90508281036040840152611006818c610ea0565b9050828103606084015261101a818b610ea0565b9050828103608084015261102e818a610ea0565b905082810360a08401526110428189610ea0565b90508660c08401528560e08401528281036101008401526110638186610ea0565b915050826101208301529b9a5050505050505050505050565b60208082526055908201527f416d6f756e742073656e74206973206c657373207468616e207768617420746860408201527f697320636f6e74656e74206973207072696365642061742e20506c656173652060608201527f73656e642074686520657861637420616d6f756e740000000000000000000000608082015260a00190565b60208082526043908201527f54686520616d6f756e7420796f752061726520747279696e6720746f2077697460408201527f686472617720657863656564732074686520636f6e7472616374206561726e6960608201527f6e67730000000000000000000000000000000000000000000000000000000000608082015260a0019056fea264697066735822122084a5e13e9006eb3512c77c3d6499e5c84c6be27d7b361935686fbb6f7d2227d464736f6c634300060c0033a26469706673582212205f6dab64fee2afe7affaf9e69456016ecbc8d7eeca6719246783318ebffba2c664736f6c634300060c0033a2646970667358221220850bb443161cb519a93181011b11fbe9133a24bd796b2462b90fa362976b734d64736f6c634300060c0033",
  "immutableReferences": {},
  "source": "// SPDX-License-Identifier: MIT\npragma solidity >=0.4.17 <0.7.0;\npragma experimental ABIEncoderV2;\nimport \"./Publisher.sol\";\nimport \"./Content.sol\";\nimport \"./User.sol\";\nimport \"./lib/OpenZeppelin/SafeMath.sol\";\n\ncontract Gateway {\n    using SafeMath for uint256;\n    address[] public contentContracts;\n    mapping(address => address payable) publisherContract;\n    mapping(address => address) userContract;\n\n    function getContentContracts() public view returns (address[] memory) {\n        return contentContracts;\n    }\n\n    /*************************************************************************************/\n    //THESE ARE USER FUNCTIONS// //THESE ARE USER FUNCTIONS// //THESE ARE USER FUNCTIONS//\n\n    function createNewUser(string memory _name, string memory _email) public\n    {\n        User userId = new User(_name, _email);\n        userContract[msg.sender] = address(userId);\n    }\n\n    function getUserProfile(address _user) public view returns (address, string memory, string memory, uint256, address[] memory, address[] memory)\n    {\n        if (userContract[_user] != 0x0000000000000000000000000000000000000000) {\n            return User(userContract[_user]).getUserProfile();\n        }\n        else {\n            //this is messy\n            return (0x0000000000000000000000000000000000000000, '','', 0, contentContracts, contentContracts);\n        }\n    }\n\n    function createNewUserAndPurchase(string memory _name, string memory _email,address payable _content, uint _contentCost,address payable _publisher) public payable\n    {\n        _publisher.transfer(msg.value);\n        User userId = new User(_name, _email);\n        userContract[msg.sender] = address(userId);\n        Content(_content).purchaseContent(msg.sender,_contentCost);\n        User(userContract[msg.sender]).purchase(_content);\n    }\n\n    function createNewUserAndSubscribe(string memory _name, string memory _email,address payable _publisher, uint256 _amount) public payable\n    {\n        _publisher.transfer(msg.value);\n        User userId = new User(_name, _email);\n        userContract[msg.sender] = address(userId);\n        User(userContract[msg.sender]).subscribe(_publisher);\n        // this function below is causing the fail\n        Publisher(_publisher).addSubscriber(msg.sender, _amount);\n    }\n\n    function purchaseContent(address payable _content, uint _contentCost) public payable {\n        Content(_content).purchaseContent(msg.sender, _contentCost);\n        User(userContract[msg.sender]).purchase(_content);\n    }\n\n    function addSubscriber(address payable _publisher, uint256 _amount) public returns (uint,uint)\n    {\n        Publisher(_publisher).addSubscriber(msg.sender, _amount);\n        User(userContract[msg.sender]).subscribe(_publisher);\n    }\n\n    /*************************************************************************************/\n    //THESE ARE PUBLISHER FUNCTIONS// //THESE ARE PUBLISHER FUNCTIONS// //THESE ARE PUBLISHER FUNCTIONS//\n    function createNewPublisher(string memory _name, string memory _email, string memory _logo, uint256 _subscriptionCost) public payable\n    {\n        Publisher publisherId = new Publisher(_name,_email,_logo,_subscriptionCost);\n        publisherContract[msg.sender] = address(publisherId);\n    }\n\n    function getPublisherProfile(address payable _publisher) public view returns (address, string memory ,string memory ,string memory, address[] memory, uint256)\n    {\n        if (publisherContract[_publisher] != 0x0000000000000000000000000000000000000000) {\n            return Publisher(publisherContract[_publisher]).getPublisherProfile();\n        }\n        else {\n            return (0x0000000000000000000000000000000000000000, '','','', contentContracts, 0);\n        }\n    }\n\n    function updatePublisherProfile(string memory _name, string memory _email, string memory _logo, uint256 _subscriptionCost) public\n    {\n        Publisher(publisherContract[msg.sender]).updateProfile(_name,_email,_logo,_subscriptionCost);\n    }\n\n    function getPublisherContracts(address _publisher) public view returns (address[] memory)\n    {\n        return Publisher(publisherContract[_publisher]).getContentContracts();\n    }\n\n    function subscriberCount(address payable _publisher) public view returns (uint)\n    {\n        return Publisher(publisherContract[_publisher]).subscriberCount();\n    }\n\n    function isSubscribed(address payable _publisher, address _consumer) public view returns (bool, uint, uint)\n    {\n        return Publisher(_publisher).isSubscribed(_consumer);\n    }\n\n    function removeSubscriber(address payable _publisher, address _subscriber) public\n    {\n        Publisher(publisherContract[_publisher]).removeSubscriber(_subscriber);\n        User(userContract[_subscriber]).unsubscribe(_publisher);\n    }\n\n    function doTransferFunds(address payable _to) public payable {\n        Publisher(publisherContract[msg.sender]).transferFunds(_to);\n    }\n\n    //THESE ARE CONTENT FUNCTIONS// //THESE ARE CONTENT FUNCTIONS// //THESE ARE CONTENT FUNCTIONS//\n\n    function getContentInfo(address payable _content) public view returns (string memory, string memory, string memory,string memory, string memory,string memory,uint, uint, address, string memory, uint256) {\n        return Content(_content).getContentDetails();\n    }\n\n    function createContent(address payable _publisher,string memory _contentHash, string memory _previewHash, string memory _filename, string memory _fileType, string memory _title, string memory _description, uint _price, string memory _pubname, uint256 _pubfee) public\n    {\n        address contractId = Publisher(_publisher).createContent(msg.sender, _contentHash, _previewHash, _fileType, _filename, _title, _description,  _price, _pubname, _pubfee);\n        contentContracts.push(address(contractId));\n    }\n\n    function isWhitelisted(address payable _content, address _consumer) public view returns (bool) {\n        return Content(_content).isWhitelisted(_consumer);\n    }\n}",
  "sourcePath": "C:\\Users\\saurabh\\code\\hackfs-mdc\\contracts\\Gateway.sol",
  "compiler": {
    "name": "solc",
    "version": "0.6.12+commit.27d51765.Emscripten.clang"
  },
  "schemaVersion": "3.1.0",
  "updatedAt": "2020-08-04T19:58:25.913Z",
  "networkType": "ethereum",
  "devdoc": {
    "kind": "dev",
    "methods": {},
    "version": 1
  },
  "userdoc": {
    "kind": "user",
    "methods": {},
    "version": 1
  }
}