{
  "contractName": "Gateway",
  "abi": [
    {
      "inputs": [
        {
          "internalType": "uint256",
          "name": "",
          "type": "uint256"
        }
      ],
      "name": "contentContracts",
      "outputs": [
        {
          "internalType": "address",
          "name": "",
          "type": "address"
        }
      ],
      "stateMutability": "view",
      "type": "function",
      "constant": true
    },
    {
      "inputs": [],
      "name": "getContentContracts",
      "outputs": [
        {
          "internalType": "address[]",
          "name": "",
          "type": "address[]"
        }
      ],
      "stateMutability": "view",
      "type": "function",
      "constant": true
    },
    {
      "inputs": [
        {
          "internalType": "string",
          "name": "_name",
          "type": "string"
        },
        {
          "internalType": "string",
          "name": "_email",
          "type": "string"
        }
      ],
      "name": "createNewUser",
      "outputs": [],
      "stateMutability": "nonpayable",
      "type": "function"
    },
    {
      "inputs": [
        {
          "internalType": "address",
          "name": "_user",
          "type": "address"
        }
      ],
      "name": "getUserProfile",
      "outputs": [
        {
          "internalType": "address",
          "name": "",
          "type": "address"
        },
        {
          "internalType": "string",
          "name": "",
          "type": "string"
        },
        {
          "internalType": "string",
          "name": "",
          "type": "string"
        },
        {
          "internalType": "uint256",
          "name": "",
          "type": "uint256"
        },
        {
          "internalType": "address[]",
          "name": "",
          "type": "address[]"
        },
        {
          "internalType": "address[]",
          "name": "",
          "type": "address[]"
        }
      ],
      "stateMutability": "view",
      "type": "function",
      "constant": true
    },
    {
      "inputs": [
        {
          "internalType": "string",
          "name": "_name",
          "type": "string"
        },
        {
          "internalType": "string",
          "name": "_email",
          "type": "string"
        },
        {
          "internalType": "address payable",
          "name": "_content",
          "type": "address"
        },
        {
          "internalType": "uint256",
          "name": "_contentCost",
          "type": "uint256"
        },
        {
          "internalType": "address payable",
          "name": "_publisher",
          "type": "address"
        }
      ],
      "name": "createNewUserAndPurchase",
      "outputs": [],
      "stateMutability": "payable",
      "type": "function",
      "payable": true
    },
    {
      "inputs": [
        {
          "internalType": "string",
          "name": "_name",
          "type": "string"
        },
        {
          "internalType": "string",
          "name": "_email",
          "type": "string"
        },
        {
          "internalType": "address payable",
          "name": "_publisher",
          "type": "address"
        },
        {
          "internalType": "uint256",
          "name": "_amount",
          "type": "uint256"
        }
      ],
      "name": "createNewUserAndSubscribe",
      "outputs": [],
      "stateMutability": "payable",
      "type": "function",
      "payable": true
    },
    {
      "inputs": [
        {
          "internalType": "address payable",
          "name": "_content",
          "type": "address"
        },
        {
          "internalType": "uint256",
          "name": "_contentCost",
          "type": "uint256"
        }
      ],
      "name": "purchaseContent",
      "outputs": [],
      "stateMutability": "payable",
      "type": "function",
      "payable": true
    },
    {
      "inputs": [
        {
          "internalType": "address payable",
          "name": "_publisher",
          "type": "address"
        },
        {
          "internalType": "uint256",
          "name": "_amount",
          "type": "uint256"
        }
      ],
      "name": "addSubscriber",
      "outputs": [],
      "stateMutability": "nonpayable",
      "type": "function"
    },
    {
      "inputs": [
        {
          "internalType": "string",
          "name": "_name",
          "type": "string"
        },
        {
          "internalType": "string",
          "name": "_email",
          "type": "string"
        },
        {
          "internalType": "string",
          "name": "_logo",
          "type": "string"
        },
        {
          "internalType": "uint256",
          "name": "_subscriptionCost",
          "type": "uint256"
        }
      ],
      "name": "createNewPublisher",
      "outputs": [],
      "stateMutability": "payable",
      "type": "function",
      "payable": true
    },
    {
      "inputs": [
        {
          "internalType": "address payable",
          "name": "_publisher",
          "type": "address"
        }
      ],
      "name": "getPublisherProfile",
      "outputs": [
        {
          "internalType": "address",
          "name": "",
          "type": "address"
        },
        {
          "internalType": "string",
          "name": "",
          "type": "string"
        },
        {
          "internalType": "string",
          "name": "",
          "type": "string"
        },
        {
          "internalType": "string",
          "name": "",
          "type": "string"
        },
        {
          "internalType": "address[]",
          "name": "",
          "type": "address[]"
        },
        {
          "internalType": "uint256",
          "name": "",
          "type": "uint256"
        }
      ],
      "stateMutability": "view",
      "type": "function",
      "constant": true
    },
    {
      "inputs": [
        {
          "internalType": "string",
          "name": "_name",
          "type": "string"
        },
        {
          "internalType": "string",
          "name": "_email",
          "type": "string"
        },
        {
          "internalType": "string",
          "name": "_logo",
          "type": "string"
        },
        {
          "internalType": "uint256",
          "name": "_subscriptionCost",
          "type": "uint256"
        }
      ],
      "name": "updatePublisherProfile",
      "outputs": [],
      "stateMutability": "nonpayable",
      "type": "function"
    },
    {
      "inputs": [
        {
          "internalType": "address",
          "name": "_publisher",
          "type": "address"
        }
      ],
      "name": "getPublisherContracts",
      "outputs": [
        {
          "internalType": "address[]",
          "name": "",
          "type": "address[]"
        }
      ],
      "stateMutability": "view",
      "type": "function",
      "constant": true
    },
    {
      "inputs": [
        {
          "internalType": "address payable",
          "name": "_publisher",
          "type": "address"
        }
      ],
      "name": "subscriberCount",
      "outputs": [
        {
          "internalType": "uint256",
          "name": "",
          "type": "uint256"
        }
      ],
      "stateMutability": "view",
      "type": "function",
      "constant": true
    },
    {
      "inputs": [
        {
          "internalType": "address payable",
          "name": "_publisher",
          "type": "address"
        },
        {
          "internalType": "address",
          "name": "_consumer",
          "type": "address"
        }
      ],
      "name": "isSubscribed",
      "outputs": [
        {
          "internalType": "bool",
          "name": "",
          "type": "bool"
        },
        {
          "internalType": "uint256",
          "name": "",
          "type": "uint256"
        },
        {
          "internalType": "uint256",
          "name": "",
          "type": "uint256"
        }
      ],
      "stateMutability": "view",
      "type": "function",
      "constant": true
    },
    {
      "inputs": [
        {
          "internalType": "address payable",
          "name": "_publisher",
          "type": "address"
        },
        {
          "internalType": "address",
          "name": "_subscriber",
          "type": "address"
        }
      ],
      "name": "removeSubscriber",
      "outputs": [],
      "stateMutability": "nonpayable",
      "type": "function"
    },
    {
      "inputs": [
        {
          "internalType": "address payable",
          "name": "_to",
          "type": "address"
        }
      ],
      "name": "doTransferFunds",
      "outputs": [],
      "stateMutability": "payable",
      "type": "function",
      "payable": true
    },
    {
      "inputs": [
        {
          "internalType": "address payable",
          "name": "_content",
          "type": "address"
        }
      ],
      "name": "getContentInfo",
      "outputs": [
        {
          "internalType": "string",
          "name": "",
          "type": "string"
        },
        {
          "internalType": "string",
          "name": "",
          "type": "string"
        },
        {
          "internalType": "string",
          "name": "",
          "type": "string"
        },
        {
          "internalType": "string",
          "name": "",
          "type": "string"
        },
        {
          "internalType": "string",
          "name": "",
          "type": "string"
        },
        {
          "internalType": "string",
          "name": "",
          "type": "string"
        },
        {
          "internalType": "uint256",
          "name": "",
          "type": "uint256"
        },
        {
          "internalType": "uint256",
          "name": "",
          "type": "uint256"
        },
        {
          "internalType": "address",
          "name": "",
          "type": "address"
        },
        {
          "internalType": "string",
          "name": "",
          "type": "string"
        },
        {
          "internalType": "uint256",
          "name": "",
          "type": "uint256"
        }
      ],
      "stateMutability": "view",
      "type": "function",
      "constant": true
    },
    {
      "inputs": [
        {
          "internalType": "address payable",
          "name": "_publisher",
          "type": "address"
        },
        {
          "internalType": "string",
          "name": "_contentHash",
          "type": "string"
        },
        {
          "internalType": "string",
          "name": "_previewHash",
          "type": "string"
        },
        {
          "internalType": "string",
          "name": "_filename",
          "type": "string"
        },
        {
          "internalType": "string",
          "name": "_fileType",
          "type": "string"
        },
        {
          "internalType": "string",
          "name": "_title",
          "type": "string"
        },
        {
          "internalType": "string",
          "name": "_description",
          "type": "string"
        },
        {
          "internalType": "uint256",
          "name": "_price",
          "type": "uint256"
        },
        {
          "internalType": "string",
          "name": "_pubname",
          "type": "string"
        },
        {
          "internalType": "uint256",
          "name": "_pubfee",
          "type": "uint256"
        }
      ],
      "name": "createContent",
      "outputs": [],
      "stateMutability": "nonpayable",
      "type": "function"
    },
    {
      "inputs": [
        {
          "internalType": "address payable",
          "name": "_content",
          "type": "address"
        },
        {
          "internalType": "address",
          "name": "_consumer",
          "type": "address"
        }
      ],
      "name": "isWhitelisted",
      "outputs": [
        {
          "internalType": "bool",
          "name": "",
          "type": "bool"
        }
      ],
      "stateMutability": "view",
      "type": "function",
      "constant": true
    }
  ],
  "bytecode": "0x608060405234801561001057600080fd5b5061540b806100206000396000f3fe608060405260043610620001205760003560e060020a9004806397cdb29911620000b3578063bb5eb9901162000071578063bb5eb990146200036d578063d24a39dd1462000384578063d455b67e14620003b8578063f6416ef614620003cf578063f7bddce414620004055762000120565b806397cdb2991462000293578063987ee15614620002ab5780639f7cc14d14620002e4578063a60607131462000322578063b6b3527214620003395762000120565b80631791e95d146200012557806319adf85014620001675780631d5b7ebe146200019b578063219f3d5914620001c257806326d38f0314620001e75780634dfa3f1814620001fe57806355d0fbe214620002235780635cf04d8214620002485780638a609367146200027c575b600080fd5b3480156200013257600080fd5b506200014a62000144366004620014e3565b6200042a565b6040516200015e9695949392919062001e69565b60405180910390f35b3480156200017457600080fd5b506200018c62000186366004620014e3565b620005ad565b6040516200015e919062001f58565b348015620001a857600080fd5b50620001c0620001ba3660046200155e565b6200065e565b005b348015620001cf57600080fd5b50620001c0620001e136600462001c2b565b6200076a565b620001c0620001f8366004620016b0565b62000803565b3480156200020b57600080fd5b50620001c06200021d3660046200191d565b620008e5565b3480156200023057600080fd5b50620001c06200024236600462001521565b62000954565b3480156200025557600080fd5b506200026d62000267366004620014e3565b62000a3c565b6040516200015e9190620020e4565b620001c06200028d366004620014e3565b62000ae3565b348015620002a057600080fd5b506200018c62000b73565b348015620002b857600080fd5b50620002d0620002ca366004620014e3565b62000bd7565b6040516200015e9695949392919062001ee1565b348015620002f157600080fd5b506200030962000303366004620014e3565b62000d98565b6040516200015e9b9a9998979695949392919062001fc2565b620001c06200033336600462001985565b62000e4b565b3480156200034657600080fd5b506200035e6200035836600462001521565b62000f54565b6040516200015e919062001f6d565b620001c06200037e36600462001a09565b62000ff9565b3480156200039157600080fd5b50620003a9620003a336600462001cc1565b6200117a565b6040516200015e919062001d73565b620001c0620003c936600462001c2b565b620011a2565b348015620003dc57600080fd5b50620003f4620003ee36600462001521565b62001217565b6040516200015e9392919062001f78565b3480156200041257600080fd5b50620001c062000424366004620016b0565b620012ae565b600160a060020a038082166000908152600160205260408120549091606091829182918291869116156200051257600160a060020a038088166000908152600160205260408082205481517f610105760000000000000000000000000000000000000000000000000000000081529151931692636101057692600480840193919291829003018186803b158015620004c157600080fd5b505afa158015620004d6573d6000803e3d6000fd5b505050506040513d6000823e601f3d908101601f19168201604052620005009190810190620016de565b955095509550955095509550620005a4565b604080516020808201835260008083528351808301855281815284518084018652828152825486518186028101860190975280875292959193909286928392909183918301828280156200059057602002820191906000526020600020905b8154600160a060020a0316815260019091019060200180831162000571575b505050505091509550955095509550955095505b91939550919395565b600160a060020a038082166000908152600160205260408082205481517f97cdb299000000000000000000000000000000000000000000000000000000008152915160609491909116926397cdb2999260048082019391829003018186803b1580156200061957600080fd5b505afa1580156200062e573d6000803e3d6000fd5b505050506040513d6000823e601f3d908101601f1916820160405262000658919081019062001880565b92915050565b6040517f1d5b7ebe000000000000000000000000000000000000000000000000000000008152600090600160a060020a038c1690631d5b7ebe90620006ba9033908e908e908d908f908e908e908e908e908e9060040162001d87565b602060405180830381600087803b158015620006d557600080fd5b505af1158015620006ea573d6000803e3d6000fd5b505050506040513d601f19601f8201168201806040525081019062000710919062001502565b600080546001810182559080527f290decd9548b62a8d60345a988386fc84ba6bc95484008f6362f93160ef3e563018054600160a060020a031916600160a060020a03929092169190911790555050505050505050505050565b33600090815260016020526040908190205490517f546f8203000000000000000000000000000000000000000000000000000000008152600160a060020a039091169063546f820390620007c990879087908790879060040162002093565b600060405180830381600087803b158015620007e457600080fd5b505af1158015620007f9573d6000803e3d6000fd5b5050505050505050565b60405160e060020a6326d38f03028152600160a060020a038316906326d38f039062000836903390859060040162001e50565b600060405180830381600087803b1580156200085157600080fd5b505af115801562000866573d6000803e3d6000fd5b5050336000908152600260205260409081902054905160e060020a6325b31a97028152600160a060020a0390911692506325b31a979150620008ad90859060040162001d73565b600060405180830381600087803b158015620008c857600080fd5b505af1158015620008dd573d6000803e3d6000fd5b505050505050565b60008282604051620008f7906200136e565b6200090492919062001f90565b604051809103906000f08015801562000921573d6000803e3d6000fd5b503360009081526002602052604090208054600160a060020a031916600160a060020a0392909216919091179055505050565b600160a060020a03808316600090815260016020526040908190205490517f627c34ad00000000000000000000000000000000000000000000000000000000815291169063627c34ad90620009ae90849060040162001d73565b600060405180830381600087803b158015620009c957600080fd5b505af1158015620009de573d6000803e3d6000fd5b505050600160a060020a03808316600090815260026020526040908190205490517f7262561c00000000000000000000000000000000000000000000000000000000815291169150637262561c90620008ad90859060040162001d73565b600160a060020a0380821660009081526001602090815260408083205481517fef352bbe00000000000000000000000000000000000000000000000000000000815291519394169263ef352bbe92600480840193919291829003018186803b15801562000aa857600080fd5b505afa15801562000abd573d6000803e3d6000fd5b505050506040513d601f19601f8201168201806040525081019062000658919062001cda565b33600090815260016020526040908190205490517fe39ff19f000000000000000000000000000000000000000000000000000000008152600160a060020a039091169063e39ff19f9062000b3c90849060040162001d73565b600060405180830381600087803b15801562000b5757600080fd5b505af115801562000b6c573d6000803e3d6000fd5b5050505050565b6060600080548060200260200160405190810160405280929190818152602001828054801562000bcd57602002820191906000526020600020905b8154600160a060020a0316815260019091019060200180831162000bae575b5050505050905090565b600160a060020a0380821660009081526002602052604081205490916060918291849183918291161562000cad57600160a060020a038088166000908152600260205260408082205481517f6f61c7440000000000000000000000000000000000000000000000000000000081529151931692636f61c74492600480840193919291829003018186803b15801562000c6e57600080fd5b505afa15801562000c83573d6000803e3d6000fd5b505050506040513d6000823e601f3d908101601f19168201604052620005009190810190620017af565b60408051602080820183526000808352835180830185528181528154855181850281018501909652808652919490928592839283929091839183018282801562000d2157602002820191906000526020600020905b8154600160a060020a0316815260019091019060200180831162000d02575b505050505091508080548060200260200160405190810160405280929190818152602001828054801562000d7f57602002820191906000526020600020905b8154600160a060020a0316815260019091019060200180831162000d60575b50505050509050955095509550955095509550620005a4565b6060806060806060806000806000606060008b600160a060020a03166355c3c7486040518163ffffffff1660e060020a02815260040160006040518083038186803b15801562000de757600080fd5b505afa15801562000dfc573d6000803e3d6000fd5b505050506040513d6000823e601f3d908101601f1916820160405262000e26919081019062001aa6565b9a509a509a509a509a509a509a509a509a509a509a5091939597999b90929496989a50565b604051600160a060020a038316903480156108fc02916000818181858888f1935050505015801562000e81573d6000803e3d6000fd5b506000848460405162000e94906200136e565b62000ea192919062001f90565b604051809103906000f08015801562000ebe573d6000803e3d6000fd5b5033600090815260026020526040908190208054600160a060020a031916600160a060020a038481169190911791829055915160e160020a6320d3b93502815292935016906341a7726a9062000f1990869060040162001d73565b600060405180830381600087803b15801562000f3457600080fd5b505af115801562000f49573d6000803e3d6000fd5b505050505050505050565b6040517f3af32abf000000000000000000000000000000000000000000000000000000008152600090600160a060020a03841690633af32abf9062000f9e90859060040162001d73565b60206040518083038186803b15801562000fb757600080fd5b505afa15801562000fcc573d6000803e3d6000fd5b505050506040513d601f19601f8201168201806040525081019062000ff29190620018bf565b9392505050565b604051600160a060020a038216903480156108fc02916000818181858888f193505050501580156200102f573d6000803e3d6000fd5b506000858560405162001042906200136e565b6200104f92919062001f90565b604051809103906000f0801580156200106c573d6000803e3d6000fd5b5033600081815260026020526040908190208054600160a060020a031916600160a060020a0385811691909117909155905160e060020a6326d38f030281529293508616916326d38f0391620010c791879060040162001e50565b600060405180830381600087803b158015620010e257600080fd5b505af1158015620010f7573d6000803e3d6000fd5b5050336000908152600260205260409081902054905160e060020a6325b31a97028152600160a060020a0390911692506325b31a9791506200113e90879060040162001d73565b600060405180830381600087803b1580156200115957600080fd5b505af11580156200116e573d6000803e3d6000fd5b50505050505050505050565b600081815481106200118857fe5b600091825260209091200154600160a060020a0316905081565b600084848484604051620011b6906200137c565b620011c5949392919062002093565b604051809103906000f080158015620011e2573d6000803e3d6000fd5b503360009081526001602052604090208054600160a060020a031916600160a060020a03929092169190911790555050505050565b600080600084600160a060020a031663b92ae87c856040518263ffffffff1660e060020a0281526004016200124d919062001d73565b60606040518083038186803b1580156200126657600080fd5b505afa1580156200127b573d6000803e3d6000fd5b505050506040513d601f19601f82011682018060405250810190620012a19190620018e1565b9250925092509250925092565b6040517ff7bddce4000000000000000000000000000000000000000000000000000000008152600160a060020a0383169063f7bddce490620012f7903390859060040162001e50565b600060405180830381600087803b1580156200131257600080fd5b505af115801562001327573d6000803e3d6000fd5b5050336000908152600260205260409081902054905160e160020a6320d3b935028152600160a060020a0390911692506341a7726a9150620008ad90859060040162001d73565b6107e7806200218783390190565b612a68806200296e83390190565b805162000658816200216d565b803562000658816200216d565b600082601f830112620013b5578081fd5b815167ffffffffffffffff811115620013cc578182fd5b6020808202620013de828201620020ed565b83815293508184018583018287018401881015620013fb57600080fd5b600092505b848310156200142b57805162001416816200216d565b82526001929092019190830190830162001400565b505050505092915050565b600082601f83011262001447578081fd5b81356200145e620014588262002115565b620020ed565b91508082528360208285010111156200147657600080fd5b8060208401602084013760009082016020015292915050565b600082601f830112620014a0578081fd5b8151620014b1620014588262002115565b9150808252836020828501011115620014c957600080fd5b620014dc8160208401602086016200213a565b5092915050565b600060208284031215620014f5578081fd5b813562000ff2816200216d565b60006020828403121562001514578081fd5b815162000ff2816200216d565b6000806040838503121562001534578081fd5b823562001541816200216d565b9150602083013562001553816200216d565b809150509250929050565b6000806000806000806000806000806101408b8d0312156200157e578586fd5b6200158a8c8c62001397565b995060208b013567ffffffffffffffff80821115620015a7578788fd5b620015b58e838f0162001436565b9a5060408d0135915080821115620015cb578788fd5b620015d98e838f0162001436565b995060608d0135915080821115620015ef578788fd5b620015fd8e838f0162001436565b985060808d013591508082111562001613578788fd5b620016218e838f0162001436565b975060a08d013591508082111562001637578687fd5b620016458e838f0162001436565b965060c08d01359150808211156200165b578586fd5b620016698e838f0162001436565b955060e08d013594506101008d013591508082111562001687578384fd5b50620016968d828e0162001436565b9250506101208b013590509295989b9194979a5092959850565b60008060408385031215620016c3578182fd5b8235620016d0816200216d565b946020939093013593505050565b60008060008060008060c08789031215620016f7578182fd5b6200170388886200138a565b9550602087015167ffffffffffffffff8082111562001720578384fd5b6200172e8a838b016200148f565b9650604089015191508082111562001744578384fd5b620017528a838b016200148f565b9550606089015191508082111562001768578384fd5b620017768a838b016200148f565b945060808901519150808211156200178c578384fd5b506200179b89828a01620013a4565b92505060a087015190509295509295509295565b60008060008060008060c08789031215620017c8578182fd5b620017d488886200138a565b9550602087015167ffffffffffffffff80821115620017f1578384fd5b620017ff8a838b016200148f565b9650604089015191508082111562001815578384fd5b620018238a838b016200148f565b955060608901519450608089015191508082111562001840578384fd5b6200184e8a838b01620013a4565b935060a089015191508082111562001864578283fd5b506200187389828a01620013a4565b9150509295509295509295565b60006020828403121562001892578081fd5b815167ffffffffffffffff811115620018a9578182fd5b620018b784828501620013a4565b949350505050565b600060208284031215620018d1578081fd5b8151801515811462000ff2578182fd5b600080600060608486031215620018f6578081fd5b8351801515811462001906578182fd5b602085015160409095015190969495509392505050565b6000806040838503121562001930578182fd5b823567ffffffffffffffff8082111562001948578384fd5b620019568683870162001436565b935060208501359150808211156200196c578283fd5b506200197b8582860162001436565b9150509250929050565b600080600080608085870312156200199b578182fd5b843567ffffffffffffffff80821115620019b3578384fd5b620019c18883890162001436565b95506020870135915080821115620019d7578384fd5b50620019e68782880162001436565b9350506040850135620019f9816200216d565b9396929550929360600135925050565b600080600080600060a0868803121562001a21578283fd5b853567ffffffffffffffff8082111562001a39578485fd5b62001a4789838a0162001436565b9650602088013591508082111562001a5d578485fd5b5062001a6c8882890162001436565b945050604086013562001a7f816200216d565b925060608601359150608086013562001a98816200216d565b809150509295509295909350565b60008060008060008060008060008060006101608c8e03121562001ac8578485fd5b8b5167ffffffffffffffff81111562001adf578586fd5b62001aed8e828f016200148f565b9b505060208c015167ffffffffffffffff81111562001b0a578586fd5b62001b188e828f016200148f565b9a505060408c015167ffffffffffffffff81111562001b35578586fd5b62001b438e828f016200148f565b99505060608c015167ffffffffffffffff81111562001b60578586fd5b62001b6e8e828f016200148f565b98505060808c015167ffffffffffffffff81111562001b8b578586fd5b62001b998e828f016200148f565b97505060a08c015167ffffffffffffffff81111562001bb6578586fd5b62001bc48e828f016200148f565b96505060c08c0151945060e08c0151935062001be58d6101008e016200138a565b92506101208c015167ffffffffffffffff81111562001c02578182fd5b62001c108e828f016200148f565b9250506101408c015190509295989b509295989b9093969950565b6000806000806080858703121562001c41578182fd5b843567ffffffffffffffff8082111562001c59578384fd5b62001c678883890162001436565b9550602087013591508082111562001c7d578384fd5b62001c8b8883890162001436565b9450604087013591508082111562001ca1578384fd5b5062001cb08782880162001436565b949793965093946060013593505050565b60006020828403121562001cd3578081fd5b5035919050565b60006020828403121562001cec578081fd5b5051919050565b600160a060020a03169052565b6000815180845260208085019450808401835b8381101562001d3a578151600160a060020a03168752958201959082019060010162001d13565b509495945050505050565b6000815180845262001d5f8160208601602086016200213a565b601f01601f19169290920160200192915050565b600160a060020a0391909116815260200190565b6000610140600160a060020a038d16835280602084015262001dac8184018d62001d45565b9050828103604084015262001dc2818c62001d45565b9050828103606084015262001dd8818b62001d45565b9050828103608084015262001dee818a62001d45565b905082810360a084015262001e04818962001d45565b905082810360c084015262001e1a818862001d45565b90508560e084015282810361010084015262001e37818662001d45565b915050826101208301529b9a5050505050505050505050565b600160a060020a03929092168252602082015260400190565b6000600160a060020a038816825260c0602083015262001e8d60c083018862001d45565b828103604084015262001ea1818862001d45565b9050828103606084015262001eb7818762001d45565b9050828103608084015262001ecd818662001d00565b9150508260a0830152979650505050505050565b6000600160a060020a038816825260c0602083015262001f0560c083018862001d45565b828103604084015262001f19818862001d45565b9050856060840152828103608084015262001f35818662001d00565b905082810360a084015262001f4b818562001d00565b9998505050505050505050565b60006020825262000ff2602083018462001d00565b901515815260200190565b92151583526020830191909152604082015260600190565b60006040825262001fa5604083018562001d45565b828103602084015262001fb9818562001d45565b95945050505050565b600061016080835262001fd88184018f62001d45565b9050828103602084015262001fee818e62001d45565b9050828103604084015262002004818d62001d45565b905082810360608401526200201a818c62001d45565b9050828103608084015262002030818b62001d45565b905082810360a084015262002046818a62001d45565b90508760c08401528660e08401526200206461010084018762001cf3565b82810361012084015262002079818662001d45565b915050826101408301529c9b505050505050505050505050565b600060808252620020a8608083018762001d45565b8281036020840152620020bc818762001d45565b90508281036040840152620020d2818662001d45565b91505082606083015295945050505050565b90815260200190565b60405181810167ffffffffffffffff811182821017156200210d57600080fd5b604052919050565b600067ffffffffffffffff8211156200212c578081fd5b50601f01601f191660200190565b60005b83811015620021575781810151838201526020016200213d565b8381111562002167576000848401525b50505050565b600160a060020a03811681146200218357600080fd5b5056fe608060405234801561001057600080fd5b506040516107e73803806107e783398101604081905261002f916101b5565b60058054600160a060020a031990811633179091554260045560068054909116301790558151610066906007906020850190610082565b50805161007a906008906020840190610082565b505050610215565b828054600181600116156101000203166002900490600052602060002090601f016020900481019282601f106100c357805160ff19168380011785556100f0565b828001600101855582156100f0579182015b828111156100f05782518255916020019190600101906100d5565b506100fc929150610100565b5090565b5b808211156100fc5760008155600101610101565b600082601f830112610125578081fd5b81516001604060020a038082111561013b578283fd5b6040516020601f8401601f191682018101838111838210171561015c578586fd5b8060405250819450838252868185880101111561017857600080fd5b600092505b8383101561019a578583018101518284018201529182019161017d565b838311156101ab5760008185840101525b5050505092915050565b600080604083850312156101c7578182fd5b82516001604060020a03808211156101dd578384fd5b6101e986838701610115565b935060208501519150808211156101fe578283fd5b5061020b85828601610115565b9150509250929050565b6105c3806102246000396000f3fe608060405234801561001057600080fd5b5060043610610073577c0100000000000000000000000000000000000000000000000000000000600035046325b31a9781146100785780633d2bd0351461008d57806341a7726a146100ab5780636f61c744146100be5780637262561c146100d8575b600080fd5b61008b61008636600461044f565b6100eb565b005b61009561014a565b6040516100a2919061057a565b60405180910390f35b61008b6100b936600461044f565b6101ac565b6100c661021f565b6040516100a29695949392919061050b565b61008b6100e636600461044f565b61042e565b600280546001810182556000919091527f405787fa12a823e0f2b7631cc41b3ba8828b3321ca811111fa75cd3aa3bb5ace01805473ffffffffffffffffffffffffffffffffffffffff1916600160a060020a0392909216919091179055565b606060028054806020026020016040519081016040528092919081815260200182805480156101a257602002820191906000526020600020905b8154600160a060020a03168152600190910190602001808311610184575b5050505050905090565b600160a060020a03166000818152602081905260408120805460ff191660019081179091556003805491820181559091527fc2575a0e9e593c00f959f8c92f12db2869c3395a3b0502d05e2516446f71f85b01805473ffffffffffffffffffffffffffffffffffffffff19169091179055565b60065460045460078054604080516020600261010060018616150260001901909416849004601f81018290048202830182019093528282526000966060968796899688968796600160a060020a039095169592946008949360039287918301828280156102cd5780601f106102a2576101008083540402835291602001916102cd565b820191906000526020600020905b8154815290600101906020018083116102b057829003601f168201915b5050875460408051602060026001851615610100026000190190941693909304601f8101849004840282018401909252818152959a508994509250840190508282801561035b5780601f106103305761010080835404028352916020019161035b565b820191906000526020600020905b81548152906001019060200180831161033e57829003601f168201915b50505050509350818054806020026020016040519081016040528092919081815260200182805480156103b757602002820191906000526020600020905b8154600160a060020a03168152600190910190602001808311610399575b505050505091508080548060200260200160405190810160405280929190818152602001828054801561041357602002820191906000526020600020905b8154600160a060020a031681526001909101906020018083116103f5575b50505050509050955095509550955095509550909192939495565b600160a060020a03166000908152602081905260409020805460ff19169055565b600060208284031215610460578081fd5b8135600160a060020a0381168114610476578182fd5b9392505050565b6000815180845260208085019450808401835b838110156104b5578151600160a060020a031687529582019590820190600101610490565b509495945050505050565b60008151808452815b818110156104e5576020818501810151868301820152016104c9565b818111156104f65782602083870101525b50601f01601f19169290920160200192915050565b6000600160a060020a038816825260c0602083015261052d60c08301886104c0565b828103604084015261053f81886104c0565b90508560608401528281036080840152610559818661047d565b905082810360a084015261056d818561047d565b9998505050505050505050565b600060208252610476602083018461047d56fea2646970667358221220114f080e7585518d473e15c376078b109db65d2a66a724676b62d452ca5503ff64736f6c634300060c0033608060405260405162002a6838038062002a688339810160408190526200002691620001db565b60018054600160a060020a03199081163017909155600080549091163317905583516200005b90600290602087019062000098565b5082516200007190600490602086019062000098565b5081516200008790600590602085019062000098565b506006555050426008555062000270565b828054600181600116156101000203166002900490600052602060002090601f016020900481019282601f10620000db57805160ff19168380011785556200010b565b828001600101855582156200010b579182015b828111156200010b578251825591602001919060010190620000ee565b50620001199291506200011d565b5090565b5b808211156200011957600081556001016200011e565b600082601f83011262000145578081fd5b81516001604060020a03808211156200015c578283fd5b6040516020601f8401601f19168201810183811183821017156200017e578586fd5b806040525081945083825286818588010111156200019b57600080fd5b600092505b83831015620001bf5785830181015182840182015291820191620001a0565b83831115620001d15760008185840101525b5050505092915050565b60008060008060808587031215620001f1578384fd5b84516001604060020a038082111562000208578586fd5b620002168883890162000134565b955060208701519150808211156200022c578485fd5b6200023a8883890162000134565b9450604087015191508082111562000250578384fd5b506200025f8782880162000134565b606096909601519497939650505050565b6127e880620002806000396000f3fe608060405260043610620000a75760003560e060020a9004806397cdb299116200006557806397cdb2991462000194578063b92ae87c14620001bb578063e39ff19f14620001f1578063ef352bbe1462000208578063f7bddce4146200022f57620000af565b80631d5b7ebe14620000b1578063546f820314620000e0578063610105761462000105578063627c34ad14620001315780638d1f4014146200015657620000af565b36620000af57005b005b620000c8620000c2366004620009f1565b62000246565b604051620000d7919062000e0f565b60405180910390f35b348015620000ed57600080fd5b50620000af620000ff36600462000cf6565b620002fc565b3480156200011257600080fd5b506200011d62000346565b604051620000d79695949392919062000eec565b3480156200013e57600080fd5b50620000af62000150366004620009cb565b620005a7565b3480156200016357600080fd5b506200017b62000175366004620009cb565b620005df565b604051620000d79b9a9998979695949392919062000f91565b348015620001a157600080fd5b50620001ac62000692565b604051620000d7919062000f64565b348015620001c857600080fd5b50620001e0620001da366004620009cb565b620006f6565b604051620000d79392919062000f79565b620000af62000202366004620009cb565b62000761565b3480156200021557600080fd5b506200022062000815565b604051620000d79190620010bf565b620000af6200024036600462000b43565b6200081b565b6000808b8b8b8b8b8b8b8b8b8b604051620002619062000854565b620002769a9998979695949392919062000e23565b604051809103906000f08015801562000293573d6000803e3d6000fd5b50600980546001810182556000919091527f6e1540171b6c0c960b71a7020d9f60077f6af931a8bbf590da0223dacf75c7af01805473ffffffffffffffffffffffffffffffffffffffff1916600160a060020a0383161790559c9b505050505050505050505050565b83516200031190600290602087019062000862565b5082516200032790600490602086019062000862565b5081516200033d90600590602085019062000862565b50600655505050565b60006060806060806000600160009054906101000a9004600160a060020a03166002600460056009600654848054600181600116156101000203166002900480601f0160208091040260200160405190810160405280929190818152602001828054600181600116156101000203166002900480156200040a5780601f10620003de576101008083540402835291602001916200040a565b820191906000526020600020905b815481529060010190602001808311620003ec57829003601f168201915b5050875460408051602060026001851615610100026000190190941693909304601f8101849004840282018401909252818152959a50899450925084019050828280156200049c5780601f1062000470576101008083540402835291602001916200049c565b820191906000526020600020905b8154815290600101906020018083116200047e57829003601f168201915b5050865460408051602060026001851615610100026000190190941693909304601f8101849004840282018401909252818152959950889450925084019050828280156200052e5780601f1062000502576101008083540402835291602001916200052e565b820191906000526020600020905b8154815290600101906020018083116200051057829003601f168201915b50505050509250818054806020026020016040519081016040528092919081815260200182805480156200058c57602002820191906000526020600020905b8154600160a060020a031681526001909101906020018083116200056d575b50505050509150955095509550955095509550909192939495565b600160a060020a03166000908152600c60209081526040808320805460ff1916905560078054600019019055600b9091529020429055565b6060806060806060806000806000606060008b600160a060020a03166355c3c7486040518163ffffffff1660e060020a02815260040160006040518083038186803b1580156200062e57600080fd5b505afa15801562000643573d6000803e3d6000fd5b505050506040513d6000823e601f3d908101601f191682016040526200066d919081019062000b71565b9a509a509a509a509a509a509a509a509a509a509a5091939597999b90929496989a50565b60606009805480602002602001604051908101604052809291908181526020018280548015620006ec57602002820191906000526020600020905b8154600160a060020a03168152600190910190602001808311620006cd575b5050505050905090565b600160a060020a0381166000908152600b6020526040812054819081904210156200075057505050600160a060020a0381166000908152600c6020908152604080832054600b9092529091205460ff90911690426200075a565b5060009150819050805b9193909250565b600081600160a060020a031630600160a060020a031631604051620007869062000e0c565b60006040518083038185875af1925050503d8060008114620007c5576040519150601f19603f3d011682016040523d82523d6000602084013e620007ca565b606091505b505090508062000811576040517f08c379a0000000000000000000000000000000000000000000000000000000008152600401620008089062001062565b60405180910390fd5b5050565b60075490565b506003805434019055600160a060020a03166000908152600c60205260409020805460ff19166001908117909155600780549091019055565b611651806200116283390190565b828054600181600116156101000203166002900490600052602060002090601f016020900481019282601f10620008a557805160ff1916838001178555620008d5565b82800160010185558215620008d5579182015b82811115620008d5578251825591602001919060010190620008b8565b50620008e3929150620008e7565b5090565b5b80821115620008e35760008155600101620008e8565b80516200090b8162001148565b92915050565b80356200090b8162001148565b600082601f8301126200092f578081fd5b8135620009466200094082620010f0565b620010c8565b91508082528360208285010111156200095e57600080fd5b8060208401602084013760009082016020015292915050565b600082601f83011262000988578081fd5b8151620009996200094082620010f0565b9150808252836020828501011115620009b157600080fd5b620009c481602084016020860162001115565b5092915050565b600060208284031215620009dd578081fd5b8135620009ea8162001148565b9392505050565b6000806000806000806000806000806101408b8d03121562000a11578586fd5b62000a1d8c8c62000911565b995060208b013567ffffffffffffffff8082111562000a3a578788fd5b62000a488e838f016200091e565b9a5060408d013591508082111562000a5e578788fd5b62000a6c8e838f016200091e565b995060608d013591508082111562000a82578788fd5b62000a908e838f016200091e565b985060808d013591508082111562000aa6578788fd5b62000ab48e838f016200091e565b975060a08d013591508082111562000aca578687fd5b62000ad88e838f016200091e565b965060c08d013591508082111562000aee578586fd5b62000afc8e838f016200091e565b955060e08d013594506101008d013591508082111562000b1a578384fd5b5062000b298d828e016200091e565b9250506101208b013590509295989b9194979a5092959850565b6000806040838503121562000b56578182fd5b823562000b638162001148565b946020939093013593505050565b60008060008060008060008060008060006101608c8e03121562000b93578081fd5b8b5167ffffffffffffffff81111562000baa578182fd5b62000bb88e828f0162000977565b9b505060208c015167ffffffffffffffff81111562000bd5578182fd5b62000be38e828f0162000977565b9a505060408c015167ffffffffffffffff81111562000c00578182fd5b62000c0e8e828f0162000977565b99505060608c015167ffffffffffffffff81111562000c2b578182fd5b62000c398e828f0162000977565b98505060808c015167ffffffffffffffff81111562000c56578182fd5b62000c648e828f0162000977565b97505060a08c015167ffffffffffffffff81111562000c81578182fd5b62000c8f8e828f0162000977565b96505060c08c0151945060e08c0151935062000cb08d6101008e01620008fe565b92506101208c015167ffffffffffffffff81111562000ccd578182fd5b62000cdb8e828f0162000977565b9250506101408c015190509295989b509295989b9093969950565b6000806000806080858703121562000d0c578384fd5b843567ffffffffffffffff8082111562000d24578586fd5b62000d32888389016200091e565b9550602087013591508082111562000d48578485fd5b62000d56888389016200091e565b9450604087013591508082111562000d6c578384fd5b5062000d7b878288016200091e565b949793965093946060013593505050565b600160a060020a03169052565b6000815180845260208085019450808401835b8381101562000dd3578151600160a060020a03168752958201959082019060010162000dac565b509495945050505050565b6000815180845262000df881602086016020860162001115565b601f01601f19169290920160200192915050565b90565b600160a060020a0391909116815260200190565b6000610140600160a060020a038d16835280602084015262000e488184018d62000dde565b9050828103604084015262000e5e818c62000dde565b9050828103606084015262000e74818b62000dde565b9050828103608084015262000e8a818a62000dde565b905082810360a084015262000ea0818962000dde565b905082810360c084015262000eb6818862000dde565b90508560e084015282810361010084015262000ed3818662000dde565b915050826101208301529b9a5050505050505050505050565b6000600160a060020a038816825260c0602083015262000f1060c083018862000dde565b828103604084015262000f24818862000dde565b9050828103606084015262000f3a818762000dde565b9050828103608084015262000f50818662000d99565b9150508260a0830152979650505050505050565b600060208252620009ea602083018462000d99565b92151583526020830191909152604082015260600190565b600061016080835262000fa78184018f62000dde565b9050828103602084015262000fbd818e62000dde565b9050828103604084015262000fd3818d62000dde565b9050828103606084015262000fe9818c62000dde565b9050828103608084015262000fff818b62000dde565b905082810360a084015262001015818a62000dde565b90508760c08401528660e08401526200103361010084018762000d8c565b82810361012084015262001048818662000dde565b915050826101408301529c9b505050505050505050505050565b60208082526027908201527f4661696c656420746f207472616e73666572207468652066756e64732c20616260408201527f6f7274696e672e00000000000000000000000000000000000000000000000000606082015260800190565b90815260200190565b60405181810167ffffffffffffffff81118282101715620010e857600080fd5b604052919050565b600067ffffffffffffffff82111562001107578081fd5b50601f01601f191660200190565b60005b838110156200113257818101518382015260200162001118565b8381111562001142576000848401525b50505050565b600160a060020a03811681146200115e57600080fd5b5056fe6080604052604051620016513803806200165183398101604081905262000026916200037d565b60008054600160a060020a03808d16600160a060020a0319928316178355600180549092163017918290551681526004602090815260409091208a5162000070928c01906200021c565b5060018054600160a060020a031660009081526004602090815260409091208a51620000a49391909101918b01906200021c565b50600154600160a060020a031660009081526004602090815260409091208851620000d8926002909201918a01906200021c565b50600154600160a060020a0316600090815260046020818152604090922087516200010c939190920191908801906200021c565b50600154600160a060020a03166000908152600460209081526040909120855162000140926005909201918701906200021c565b50600154600160a060020a03166000908152600460209081526040909120875162000174926003909201918901906200021c565b5060018054600160a060020a0390811660009081526004602090815260408083204260069091015584548416835280832060070188905593549092168152919091208351620001cc926008909201918501906200021c565b5060018054600160a060020a039081166000908152600460209081526040808320600901959095559c90911681526003909b529920805460ff191690991790985550620004ce9650505050505050565b828054600181600116156101000203166002900490600052602060002090601f016020900481019282601f106200025f57805160ff19168380011785556200028f565b828001600101855582156200028f579182015b828111156200028f57825182559160200191906001019062000272565b506200029d929150620002a1565b5090565b5b808211156200029d5760008155600101620002a2565b8051600160a060020a0381168114620002d057600080fd5b92915050565b600082601f830112620002e7578081fd5b81516001604060020a0380821115620002fe578283fd5b6040516020601f8401601f191682018101838111838210171562000320578586fd5b806040525081945083825286818588010111156200033d57600080fd5b600092505b8383101562000361578583018101518284018201529182019162000342565b83831115620003735760008185840101525b5050505092915050565b6000806000806000806000806000806101408b8d0312156200039d578586fd5b620003a98c8c620002b8565b995060208b01516001604060020a0380821115620003c5578788fd5b620003d38e838f01620002d6565b9a5060408d0151915080821115620003e9578788fd5b620003f78e838f01620002d6565b995060608d01519150808211156200040d578788fd5b6200041b8e838f01620002d6565b985060808d015191508082111562000431578788fd5b6200043f8e838f01620002d6565b975060a08d015191508082111562000455578687fd5b620004638e838f01620002d6565b965060c08d015191508082111562000479578586fd5b620004878e838f01620002d6565b955060e08d015194506101008d0151915080821115620004a5578384fd5b50620004b48d828e01620002d6565b9250506101208b015190509295989b9194979a5092959850565b61117380620004de6000396000f3fe608060405260043610610075577c0100000000000000000000000000000000000000000000000000000000600035046326d38f03811461007e5780633af32abf1461009157806355c3c748146100c75780635c9355d7146100f35780636e70096e146101295780637502b9e8146101495761007c565b3661007c57005b005b61007c61008c366004610e0c565b610169565b34801561009d57600080fd5b506100b16100ac366004610df1565b6101de565b6040516100be9190610ea6565b60405180910390f35b3480156100d357600080fd5b506100dc6101fc565b6040516100be9b9a99989796959493929190610ec4565b3480156100ff57600080fd5b5061011361010e366004610df1565b6108a8565b6040516100be9a99989796959493929190610f85565b34801561013557600080fd5b5061007c610144366004610e36565b610cd9565b34801561015557600080fd5b506100b1610164366004610df1565b610d4b565b600154600160a060020a031660009081526004602052604090206007015481146101b15760405160e560020a62461bcd0281526004016101a890611037565b60405180910390fd5b506002805434019055600160a060020a03166000908152600360205260409020805460ff19166001179055565b600160a060020a031660009081526003602052604090205460ff1690565b60608060608060608060008060006060600060046000600160009054906101000a9004600160a060020a0316600160a060020a0316600160a060020a0316815260200190815260200160002060000160046000600160009054906101000a9004600160a060020a0316600160a060020a0316600160a060020a0316815260200190815260200160002060010160046000600160009054906101000a9004600160a060020a0316600160a060020a0316600160a060020a0316815260200190815260200160002060020160046000600160009054906101000a9004600160a060020a0316600160a060020a0316600160a060020a0316815260200190815260200160002060030160046000600160009054906101000a9004600160a060020a0316600160a060020a0316600160a060020a0316815260200190815260200160002060040160046000600160009054906101000a9004600160a060020a0316600160a060020a0316600160a060020a0316815260200190815260200160002060050160046000600160009054906101000a9004600160a060020a0316600160a060020a0316600160a060020a031681526020019081526020016000206006015460046000600160009054906101000a9004600160a060020a0316600160a060020a0316600160a060020a031681526020019081526020016000206007015460008054906101000a9004600160a060020a031660046000600160009054906101000a9004600160a060020a0316600160a060020a0316600160a060020a0316815260200190815260200160002060080160046000600160009054906101000a9004600160a060020a0316600160a060020a0316600160a060020a03168152602001908152602001600020600901548a8054600181600116156101000203166002900480601f01602080910402602001604051908101604052809291908181526020018280546001816001161561010002031660029004801561051c5780601f106104f15761010080835404028352916020019161051c565b820191906000526020600020905b8154815290600101906020018083116104ff57829003601f168201915b50505050509a50898054600181600116156101000203166002900480601f0160208091040260200160405190810160405280929190818152602001828054600181600116156101000203166002900480156105b85780601f1061058d576101008083540402835291602001916105b8565b820191906000526020600020905b81548152906001019060200180831161059b57829003601f168201915b50508c5460408051602060026001851615610100026000190190941693909304601f8101849004840282018401909252818152959f508e9450925084019050828280156106465780601f1061061b57610100808354040283529160200191610646565b820191906000526020600020905b81548152906001019060200180831161062957829003601f168201915b50508b5460408051602060026001851615610100026000190190941693909304601f8101849004840282018401909252818152959e508d9450925084019050828280156106d45780601f106106a9576101008083540402835291602001916106d4565b820191906000526020600020905b8154815290600101906020018083116106b757829003601f168201915b50508a5460408051602060026001851615610100026000190190941693909304601f8101849004840282018401909252818152959d508c9450925084019050828280156107625780601f1061073757610100808354040283529160200191610762565b820191906000526020600020905b81548152906001019060200180831161074557829003601f168201915b5050895460408051602060026001851615610100026000190190941693909304601f8101849004840282018401909252818152959c508b9450925084019050828280156107f05780601f106107c5576101008083540402835291602001916107f0565b820191906000526020600020905b8154815290600101906020018083116107d357829003601f168201915b5050855460408051602060026001851615610100026000190190941693909304601f8101849004840282018401909252818152959b508794509250840190508282801561087e5780601f106108535761010080835404028352916020019161087e565b820191906000526020600020905b81548152906001019060200180831161086157829003601f168201915b505050505091509a509a509a509a509a509a509a509a509a509a509a50909192939495969798999a565b60046020908152600091825260409182902080548351601f6002600019610100600186161502019093169290920491820184900484028101840190945280845290929183919083018282801561093f5780601f106109145761010080835404028352916020019161093f565b820191906000526020600020905b81548152906001019060200180831161092257829003601f168201915b505050505090806001018054600181600116156101000203166002900480601f0160208091040260200160405190810160405280929190818152602001828054600181600116156101000203166002900480156109dd5780601f106109b2576101008083540402835291602001916109dd565b820191906000526020600020905b8154815290600101906020018083116109c057829003601f168201915b50505060028085018054604080516020601f6000196101006001871615020190941695909504928301859004850281018501909152818152959695945090925090830182828015610a6f5780601f10610a4457610100808354040283529160200191610a6f565b820191906000526020600020905b815481529060010190602001808311610a5257829003601f168201915b5050505060038301805460408051602060026001851615610100026000190190941693909304601f8101849004840282018401909252818152949594935090830182828015610aff5780601f10610ad457610100808354040283529160200191610aff565b820191906000526020600020905b815481529060010190602001808311610ae257829003601f168201915b5050505060048301805460408051602060026001851615610100026000190190941693909304601f8101849004840282018401909252818152949594935090830182828015610b8f5780601f10610b6457610100808354040283529160200191610b8f565b820191906000526020600020905b815481529060010190602001808311610b7257829003601f168201915b5050505060058301805460408051602060026001851615610100026000190190941693909304601f8101849004840282018401909252818152949594935090830182828015610c1f5780601f10610bf457610100808354040283529160200191610c1f565b820191906000526020600020905b815481529060010190602001808311610c0257829003601f168201915b505050505090806006015490806007015490806008018054600181600116156101000203166002900480601f016020809104026020016040519081016040528092919081815260200182805460018160011615610100020316600290048015610cc95780601f10610c9e57610100808354040283529160200191610cc9565b820191906000526020600020905b815481529060010190602001808311610cac57829003601f168201915b505050505090806009015490508a565b600254811115610cfe5760405160e560020a62461bcd0281526004016101a8906110ba565b600254610d0b9082610d60565b60025560008054604051600160a060020a039091169183156108fc02918491818181858888f19350505050158015610d47573d6000803e3d6000fd5b5050565b60036020526000908152604090205460ff1681565b6000610da283836040518060400160405280601e81526020017f536166654d6174683a207375627472616374696f6e206f766572666c6f770000815250610dab565b90505b92915050565b60008184841115610dd25760405160e560020a62461bcd0281526004016101a89190610eb1565b505050900390565b8035600160a060020a0381168114610da557600080fd5b600060208284031215610e02578081fd5b610da28383610dda565b60008060408385031215610e1e578081fd5b610e288484610dda565b946020939093013593505050565b600060208284031215610e47578081fd5b5035919050565b600160a060020a03169052565b60008151808452815b81811015610e8057602081850181015186830182015201610e64565b81811115610e915782602083870101525b50601f01601f19169290920160200192915050565b901515815260200190565b600060208252610da26020830184610e5b565b6000610160808352610ed88184018f610e5b565b90508281036020840152610eec818e610e5b565b90508281036040840152610f00818d610e5b565b90508281036060840152610f14818c610e5b565b90508281036080840152610f28818b610e5b565b905082810360a0840152610f3c818a610e5b565b90508760c08401528660e0840152610f58610100840187610e4e565b828103610120840152610f6b8186610e5b565b915050826101408301529c9b505050505050505050505050565b6000610140808352610f998184018e610e5b565b90508281036020840152610fad818d610e5b565b90508281036040840152610fc1818c610e5b565b90508281036060840152610fd5818b610e5b565b90508281036080840152610fe9818a610e5b565b905082810360a0840152610ffd8189610e5b565b90508660c08401528560e084015282810361010084015261101e8186610e5b565b915050826101208301529b9a5050505050505050505050565b60208082526055908201527f416d6f756e742073656e74206973206c657373207468616e207768617420746860408201527f697320636f6e74656e74206973207072696365642061742e20506c656173652060608201527f73656e642074686520657861637420616d6f756e740000000000000000000000608082015260a00190565b60208082526043908201527f54686520616d6f756e7420796f752061726520747279696e6720746f2077697460408201527f686472617720657863656564732074686520636f6e7472616374206561726e6960608201527f6e67730000000000000000000000000000000000000000000000000000000000608082015260a0019056fea2646970667358221220f1d2cfa4190d027c0d961b9ee004a726e6b74309a5a0a135ed500134535030b164736f6c634300060c0033a2646970667358221220af04346997175cbfb244bf572ebdedd2361c44233818c97bfbf294a737a5694764736f6c634300060c0033a2646970667358221220dd649e55ce5682ad341dde5b5cb190c43ad22543eb12d19eee560a47fb90f4f464736f6c634300060c0033",
  "immutableReferences": {},
  "source": "// SPDX-License-Identifier: MIT\r\npragma solidity >=0.4.17 <0.7.0;\r\npragma experimental ABIEncoderV2;\r\nimport \"./Publisher.sol\";\r\nimport \"./Content.sol\";\r\nimport \"./User.sol\";\r\nimport \"./lib/OpenZeppelin/SafeMath.sol\";\r\n\r\ncontract Gateway {\r\n    using SafeMath for uint256;\r\n    address[] public contentContracts;\r\n    mapping(address => address payable) publisherContract;\r\n    mapping(address => address) userContract;\r\n\r\n    function getContentContracts() public view returns (address[] memory) {\r\n        return contentContracts;\r\n    }\r\n\r\n    /*************************************************************************************/\r\n    //THESE ARE USER FUNCTIONS// //THESE ARE USER FUNCTIONS// //THESE ARE USER FUNCTIONS//\r\n\r\n    function createNewUser(string memory _name, string memory _email) public\r\n    {\r\n        User userId = new User(_name, _email);\r\n        userContract[msg.sender] = address(userId);\r\n    }\r\n\r\n    function getUserProfile(address _user) public view returns (address, string memory, string memory, uint256, address[] memory, address[] memory)\r\n    {\r\n        if (userContract[_user] != 0x0000000000000000000000000000000000000000) {\r\n            return User(userContract[_user]).getUserProfile();\r\n        }\r\n        else {\r\n            //this is messy\r\n            return (0x0000000000000000000000000000000000000000, '','', 0, contentContracts, contentContracts);\r\n        }\r\n    }\r\n\r\n    function createNewUserAndPurchase(string memory _name, string memory _email,address payable _content, uint _contentCost,address payable _publisher) public payable\r\n    {\r\n        _publisher.transfer(msg.value);\r\n        User userId = new User(_name, _email);\r\n        userContract[msg.sender] = address(userId);\r\n        Content(_content).purchaseContent(msg.sender,_contentCost);\r\n        User(userContract[msg.sender]).purchase(_content);\r\n    }\r\n\r\n    function createNewUserAndSubscribe(string memory _name, string memory _email,address payable _publisher, uint256 _amount) public payable\r\n    {\r\n        _publisher.transfer(msg.value);\r\n        User userId = new User(_name, _email);\r\n        userContract[msg.sender] = address(userId);\r\n        User(userContract[msg.sender]).subscribe(_publisher);\r\n        //Publisher(_publisher).addSubscriber(msg.sender, _amount);\r\n    }\r\n\r\n    function purchaseContent(address payable _content, uint _contentCost) public payable {\r\n        Content(_content).purchaseContent(msg.sender, _contentCost);\r\n        User(userContract[msg.sender]).purchase(_content);\r\n    }\r\n\r\n    function addSubscriber(address payable _publisher, uint256 _amount) public\r\n    {\r\n        Publisher(_publisher).addSubscriber(msg.sender, _amount);\r\n        User(userContract[msg.sender]).subscribe(_publisher);\r\n    }\r\n\r\n    /*************************************************************************************/\r\n    //THESE ARE PUBLISHER FUNCTIONS// //THESE ARE PUBLISHER FUNCTIONS// //THESE ARE PUBLISHER FUNCTIONS//\r\n    function createNewPublisher(string memory _name, string memory _email, string memory _logo, uint256 _subscriptionCost) public payable\r\n    {\r\n        Publisher publisherId = new Publisher(_name,_email,_logo,_subscriptionCost);\r\n        publisherContract[msg.sender] = address(publisherId);\r\n    }\r\n\r\n    function getPublisherProfile(address payable _publisher) public view returns (address, string memory ,string memory ,string memory, address[] memory, uint256)\r\n    {\r\n        if (publisherContract[_publisher] != 0x0000000000000000000000000000000000000000) {\r\n            return Publisher(publisherContract[_publisher]).getPublisherProfile();\r\n        }\r\n        else {\r\n            return (0x0000000000000000000000000000000000000000, '','','', contentContracts, 0);\r\n        }\r\n    }\r\n\r\n    function updatePublisherProfile(string memory _name, string memory _email, string memory _logo, uint256 _subscriptionCost) public\r\n    {\r\n        Publisher(publisherContract[msg.sender]).updateProfile(_name,_email,_logo,_subscriptionCost);\r\n    }\r\n\r\n    function getPublisherContracts(address _publisher) public view returns (address[] memory)\r\n    {\r\n        return Publisher(publisherContract[_publisher]).getContentContracts();\r\n    }\r\n\r\n    function subscriberCount(address payable _publisher) public view returns (uint)\r\n    {\r\n        return Publisher(publisherContract[_publisher]).subscriberCount();\r\n    }\r\n\r\n    function isSubscribed(address payable _publisher, address _consumer) public view returns (bool, uint, uint)\r\n    {\r\n        return Publisher(_publisher).isSubscribed(_consumer);\r\n    }\r\n\r\n    function removeSubscriber(address payable _publisher, address _subscriber) public\r\n    {\r\n        Publisher(publisherContract[_publisher]).removeSubscriber(_subscriber);\r\n        User(userContract[_subscriber]).unsubscribe(_publisher);\r\n    }\r\n\r\n    function doTransferFunds(address payable _to) public payable {\r\n        Publisher(publisherContract[msg.sender]).transferFunds(_to);\r\n    }\r\n\r\n    //THESE ARE CONTENT FUNCTIONS// //THESE ARE CONTENT FUNCTIONS// //THESE ARE CONTENT FUNCTIONS//\r\n\r\n    function getContentInfo(address payable _content) public view returns (string memory, string memory, string memory,string memory, string memory,string memory,uint, uint, address, string memory, uint256) {\r\n        return Content(_content).getContentDetails();\r\n    }\r\n\r\n    function createContent(address payable _publisher,string memory _contentHash, string memory _previewHash, string memory _filename, string memory _fileType, string memory _title, string memory _description, uint _price, string memory _pubname, uint256 _pubfee) public\r\n    {\r\n        address contractId = Publisher(_publisher).createContent(msg.sender, _contentHash, _previewHash, _fileType, _filename, _title, _description,  _price, _pubname, _pubfee);\r\n        contentContracts.push(address(contractId));\r\n    }\r\n\r\n    function isWhitelisted(address payable _content, address _consumer) public view returns (bool) {\r\n        return Content(_content).isWhitelisted(_consumer);\r\n    }\r\n}",
  "sourcePath": "C:\\Users\\Stevens\\Projects\\simple\\contracts\\Gateway.sol",
  "compiler": {
    "name": "solc",
    "version": "0.6.12+commit.27d51765.Emscripten.clang"
  },
  "schemaVersion": "3.2.1",
  "updatedAt": "2020-08-03T09:16:25.297Z",
  "networkType": "ethereum",
  "devdoc": {
    "kind": "dev",
    "methods": {},
    "version": 1
  },
  "userdoc": {
    "kind": "user",
    "methods": {},
    "version": 1
  }
}